:020000040800F2
:1000000000000220851904088DAD030891AD030896
:10001000A1AD0308B1AD0308C1AD030800000000A5
:10002000000000000000000000000000D1AD030847
:10003000D3AD030800000000D5AD0308D9AD030817
:10004000D9190408E5AE0308F1AE0308F7AE0308BA
:1000500075AE0308D919040879AE03087FAE03080A
:1000600085AE03088BAE030891AE0308D9190408C6
:10007000D9190408D9190408D9190408D919040888
:10008000D9190408D9190408D9190408D919040878
:10009000D9190408D9190408D919040897AE030816
:1000A000FDAE030803AF030815AF0308D919040810
:1000B0001BAF030821AF03082DAF0308D9190408AB
:1000C000D9190408D9190408D9190408D919040838
:1000D000D919040877AF03087DAF030883AF03087D
:1000E000BBAE0308EBAE0308FDAD030859AF030830
:1000F0005FAF030871AF0308D9190408D9190408C0
:10010000D9190408D919040835AF0308D919040806
:1001100089AF0308D91904084DAF030853AF03088A
:10012000D9190408D9190408D9190408D9190408D7
:10013000D9190408D9190408D9190408D9190408C7
:10014000D9190408D9190408D9190408F1AD03080C
:10015000D9190408D9190408D91904088FAF03085C
:10016000D9190408D9190408D9190408D919040897
:10017000D9190408D9190408D91904080000000085
:10018000D9190408D919040810B5002302E0CC5C81
:10019000C45401339342FAD110BDD0F81832023959
:1001A000023B994206D290F80222D0F82C3202FB90
:1001B0000130704700207047002310B504461846F0
:1001C0004208E15C42EAC012013351FA82F20B2B81
:1001D000D0B2F5D110BDF8B503690C4601F109069E
:1001E000002B38D0436900212E255A5C0131202A8A
:1001F00018D0052A08BFE522A2F14107092908BF46
:1002000006F8015B192F0BD81F7B082994BF4FF00C
:10021000080C4FF0100C1CEA070F01D02032D2B2AC
:1002200006F8012B0B29E0D1DA7A22729A7FD97F66
:10023000120442EA0162197F0A43597F42EA01220D
:100240002260597E1A7E42EA0122A280DA7D9B7DDD
:1002500043EA0223E38000253570A669F6B10369FD
:100260000BB9002518E0E369002BFAD0028C4FF699
:10027000FF739A42F5D0C7690AE0002147F0A6F85B
:100280000028EED0E369013B9D42EAD2705501356A
:1002900037F815000028F0D100237355F8BD08B5D4
:1002A00098B103688BB193F8002272B1B3F80612CB
:1002B0008288914209D193F8010241F038F810F098
:1002C000010F0CBF0020032008BD092008BDCA7E15
:1002D0008B7E032843EA022305D1487D0A7D42EA4A
:1002E000002243EA02431846704770B5044690F86E
:1002F000040230B3D4F8305294F8010221462A4661
:10030000012341F03BF8D8B9D4F8243284F8040230
:10031000EA1AD4F81C329A4201D3002070BD94F836
:1003200003620AE0D4F81C3294F80102ED18214669
:100330002A46012341F022F8013E012EF2D8ECE7D3
:10034000012070BD70B50446FFF7CFFF05460028B9
:1003500055D194F80032032B48D194F80562012E50
:1003600044D129464FF4007220463AF024FC55232C
:10037000412284F8FE31AA2384F8FF31E27052232F
:1003800084F8E621D4F81022237063706123A370EF
:1003900084F8E731C2F3072384F8E82184F8E931CF
:1003A000130C120E84F8EB21D4F80C2284F8EA31F5
:1003B000C2F3072384F8EC2184F8ED31130C120EFC
:1003C00084F8EF21D4F8202284F8EE317221013232
:1003D00084F8E41184F8E511C4F8302294F801029D
:1003E0002146334640F0CAFF84F80552002194F8B4
:1003F00001020A4640F0E4FF051C18BF012528460B
:1004000070BD38B5D0F83032994204460D460DD053
:10041000FFF76BFF60B994F8010221462A460123D9
:1004200040F08AFF20B9C4F8305238BD002038BDF2
:10043000012038BD002310B580F804324FF0FF339F
:10044000C0F830320446FFF7DCFF80BB94F8FE3181
:1004500094F8FF2143EA0222174B12B29A4228D1A4
:1004600094F8382094F83930120442EA036294F880
:1004700036301A4394F8373042EA03220F4B22F009
:100480007F429A4216D094F8540094F85520000404
:1004900040EA026094F85220104394F8532040EA56
:1004A000022020F07F40C01A18BF012010BD032099
:1004B00010BD022010BD00BF55AAFFFF46415400E9
:1004C0002DE9FF410023036007460846154640F02A
:1004D000B9FF061EC0F28081C04B53F82640002CA5
:1004E00000F088813C6094F8003283B194F80102F6
:1004F00040F01DFFC1070AD4002D00F07D8100F0FF
:100500000400C0B2002814BF0A20002084E10023A8
:1005100084F80032B24B13F8160084F8010240F060
:10052000F3FEC20700F16A812DB100F00400C0B2F1
:10053000002840F0658100212046FFF77BFF01285D
:1005400008D0002840F06481A54B03EB46035D789A
:10055000002D35D0002304EB830292F8C21102F57E
:10056000DF7251B1917AD07A090441EA0061107AC0
:10057000527A014341EA022200E00A464DF8032084
:100580000433102BE7D1964B03EB460676783746BB
:1005900006B1771E5DF82750002D00F0358120460A
:1005A0002946FFF747FF2EB908B909E002200137B5
:1005B000032FEFD9032800F0258108B10D202BE18E
:1005C000227BE37A43EA0223B3F5007FF6D1E17D93
:1005D000A37D53EA01210DD194F8261094F8273019
:1005E000090441EA036194F82430194394F8253052
:1005F00041EA0321267CC4F81C12731E012B84F8E7
:100600000362DBD8627B84F80222002AD6D0531E14
:100610001342D3D1A07C637C43EA002398B21B072A
:10062000A4F80802CAD1277DE37C53EA07230DD141
:1006300094F8223094F823701B0443EA076394F87B
:1006400020703B4394F8217043EA072394F80F800D
:10065000A77B57EA0828B1D006FB01FC08EB10176E
:100660006744BB42AAD3DB1BB3FBF2F3002BA5D03C
:1006700040F6F572934206D94FF6F576B3428CBF39
:100680000326022600E00126023305EB08027F194B
:10069000032EC4F81832C4F82052C4F82422C4F837
:1006A0002C7213D1002889D194F82E2094F82F00B1
:1006B000120442EA006294F82C00024394F82D00E0
:1006C00042EA0022C4F828229B000FE000283FF4F1
:1006D00075AF6244022EC4F8282201D15B0005E008
:1006E00003225A4303F0010303EB520303F2FF1307
:1006F000B1EB532FFFF462AF4FF0FF33C4F8103269
:10070000C4F80C328023032E84F8053257D194F8B4
:10071000312094F8303043EA0223012B4FD1204698
:10072000691CFFF76EFE002849D194F8FE3194F859
:10073000FF2184F8050243EA02222A4B12B29A42B0
:100740003DD1A278E378120442EA036223781A4387
:10075000637842EA0322244B9A4230D194F8E6218E
:1007600094F8E731120442EA036294F8E4311A4340
:1007700094F8E53142EA03221C4B9A421FD194F8C7
:10078000EA3194F8EB211B0443EA026394F8E82170
:10079000134394F8E92143EA0223C4F8103294F891
:1007A000EE3194F8EF211B0443EA026394F8EC2144
:1007B000134394F8ED2143EA0223C4F80C320C4AA7
:1007C00084F80062138801339BB200201380A4F8E0
:1007D0000632C4F814021FE00B201DE04020002068
:1007E000C05F050855AAFFFF525261417272416114
:1007F0003C2000200C200FE028460DE003200BE0F9
:100800000A2009E0012007E0002E3FF4CFAED5E634
:1008100003287FF4D3AEF5E704B0BDE8F08100BF54
:100820000129F8B504460D4657D9D0F81832994237
:1008300053D290F80032022B26D0032B33D0012B59
:1008400048D101EB5106D0F8241201EB5621FFF7F5
:10085000D8FD00B13EE0F305D4F82412DB0D0136DB
:10086000204601EB5621E75CFFF7CBFD002831D194
:10087000F605F60DEB07A05D47EA002001D500095B
:10088000F8BD0005000DF8BDD0F8241201EB1521CC
:10089000FFF7B7FDF0B92D06ED0D635D64196078C3
:1008A00043EA0020F8BDD0F8241201EBD511FFF780
:1008B000A8FD78B96D06ED0D6319D8789A785B7844
:1008C000000640EA024040EA0320635D184320F03E
:1008D0007040F8BD4FF0FF30F8BD0120F8BD70B595
:1008E00004460D46E1808168012901D1022070BDD6
:1008F0000368D3F818229142F8D291B993F80022F4
:10090000032A02D1D3F8281259B90022E260B3F8C1
:100910000822AA42EAD9D3F8283203EB151323613F
:100920001BE093F8026236010EE02068FFF778FFC3
:10093000421C014619D00128D8D92368D3F81832AF
:100940009842D3D2AD1BADB2B542EED2E160206881
:10095000FFF723FC00EB15102061236805F00F055D
:1009600003EB45136361002070BD012070BD0129B8
:10097000F8B504460D46164668D9D0F818329942A3
:1009800064D290F80032022B34D0032B41D0012BDB
:1009900057D101EB5107D0F8241201EB5721FFF793
:1009A00030FD00284ED1FB05DB0D15F00105F2B23C
:1009B00005D0E15C01F00F0141EA0212D2B2D4F895
:1009C0002412E2540137012384F80432204601EB5B
:1009D0005721FFF716FDA8BBFF05FF0D15B1C6F3A4
:1009E000071605E0E35DC6F3032623F00F031E435D
:1009F000E65527E0D0F8241201EB1521FFF701FDA1
:100A000000BB2D06ED0D66556519C6F307266E7001
:100A100018E0D0F8241201EBD511FFF7F2FC88B9E9
:100A20006D06ED0D6319DA78120602F07042164376
:100A3000C6F3072266555A70320C360E9A70DE7075
:100A400000E00220012384F80432F8BD0220F8BD42
:100A5000F8B504460F4641B9D0F80C6286B1D0F81B
:100A600018329E4228BF01260BE0FFF7D9FE01286D
:100A700000D844E0D4F81832984241D33E4600E012
:100A800001263546D4F8183201359D4204D3012E93
:100A900001D80020F8BD022520462946FFF7C0FEF8
:100AA00048B1431C02D14FF0FF30F8BD012826D0D9
:100AB000B542E7D1EDE7204629466FF07042FFF7D7
:100AC00056FFD0B937B9D4F81032C4F80C52591CBB
:100AD00008D110E0204639462A46FFF748FF002893
:100AE000F1D00AE0013BC4F8103294F8053243F02B
:100AF000010384F805322846F8BD0128D3D001202F
:100B0000F8BD2DE9F843C6880136B6B204460F4653
:100B100016B90420BDE8F8830369002BF9D016F05C
:100B20000F0863D1C16801330361006821B9B0F8CF
:100B30000832B342EDD959E090F80222013A12EAA4
:100B4000161253D1FFF76CFE0128054602D8022089
:100B5000BDE8F883411C02D10120BDE8F88320687C
:100B6000D0F818329D423BD3002FD2D0E168FFF776
:100B70006FFF0546002841D00128E8D0421CEBD089
:100B80002068FFF7B2FB07460028E5D139464FF44D
:100B9000007220683AF00FF8D4F8009029464846D1
:100BA000FFF7FBFAC9F830024FF001090EE083F8B5
:100BB00004922068FFF799FB0028CDD12368D3F871
:100BC000302201370132C3F83022FFB2236893F894
:100BD0000222BA42EBD8D3F83022D71BC3F83072C6
:100BE000E56020682946FFF7D8FA20612368E6808F
:100BF00003EB481363610020BDE8F8830720BDE8DC
:100C0000F88300002DE9F84FFF27054688463C464B
:100C10000426DFF8F4904FF6FF7A66E02868FFF7C5
:100C2000F0FB0646002864D16B691A78002A66D06A
:100C3000D97AE52A01F03F0150D0B1F1080CDCF17E
:100C4000000050EB0C00404548D10F293CD102F088
:100C50004001C9B229B1E9885F7B298402F0BF0451
:100C600001E0A2423AD15A7BBA4237D11A78EE69F2
:100C700002F03F020D21013A4A434FF0010E0021DC
:100C800011F809C003EB0C0090F801B013F80C0048
:100C900040EA0B20BEF1000F06D0FE2A1ED826F82F
:100CA00012008646013201E0504517D101310D296D
:100CB000E6D11B7803F04003DBB2EBB1FE2A0DD87E
:100CC000002326F8123017E024B91846FFF774FA0B
:100CD000874216D04FF6FF732B8412E0FF2428467C
:100CE0000021FFF70EFF064618B92969002995D1A2
:100CF0003EB100232B6104E0013CE4B2EFE704269F
:100D0000F7E73046BDE8F88F8A62050870B50E46F1
:100D100000210446FFF7E3FDA8B9054620682169D4
:100D2000FFF76FFB78B963691B78E52B00D01BB91F
:100D30000135B54201D170BD054620460121FFF7BE
:100D4000E0FE0028EAD0042808BF072070BDF8B5EF
:100D5000018CC5884FF6FF73994208BF29460446A7
:100D6000FFF7BDFD0146C0B9E526012721692068CE
:100D7000FFF747FB014668B963691E70236883F873
:100D80000472E388AB4208D22046FFF7BAFE014660
:100D90000028EBD0042908BF02210846F8BD01292C
:100DA00070B504460D462BD9D0F81832994227D297
:100DB0001FE020462946FFF733FD064608B900200C
:100DC00070BD01281CD0411C18D0204629460022A5
:100DD000FFF7CDFDA8B9D4F810325A1C08D0013362
:100DE000C4F8103294F8053243F0010384F8053258
:100DF0003546D4F818329D42DBD3E0E7012070BDC0
:100E0000022070BD2DE9F84F4FF0FF0906464C4611
:100E100030683169FFF7F5FA804600287DD17569A1
:100E20002F78002F73D0EA7AE52F02F03F0365D0C8
:100E300002F00802D2B212B10F2B5FD101E00F2BEA
:100E40004AD1D6F81CB0BBF1000F58D007F04003D0
:100E5000DBB233B1F38895F80D90338407F0BF0708
:100E600001E0A7424AD16B7B4B4547D12C7824F057
:100E70004004013C0D235C434FF001084FF0000A91
:100E8000274B1AF803106818695C407841EA002083
:100E9000B8F1000F0BD046F0B7FAFE2C80462DD8E3
:100EA0003BF8140046F0B0FA0134804502E04FF6FA
:100EB000FF73984222D10AF1010ABAF10D0FDFD176
:100EC0002B7803F04003DBB223B3B8F1000F21D03D
:100ED0003BF81430F3B111E024B92846FFF76CF960
:100EE00081451AD04FF0FF33B1693384CB7AD807EC
:100EF00004D428460B2239F081FE70B1FF2430461D
:100F00000021FFF7FEFD8046002881D005E04FF06C
:100F1000040802E07C1EE4B2F1E74046BDE8F88F29
:100F20008A6205082DE9F04F8669C76987B00DF11F
:100F30000C080C22044631464046FFF725F99DF87F
:100F4000172002F02003002B40F0EC80D5075FD57E
:100F5000F3724FF00109E3610B2230464146FFF77F
:100F600013F9B9F1050F0DD9BB1E4A46D10341EA69
:100F7000520233F8021F11FA82F2598892B2002904
:100F8000F4D100E04A46072302F00F0000F13001DF
:100F9000392988BF00F1370101A8C2F30F12195493
:100FA000013B002AF0D106A8C1187E2001F8140CDC
:100FB00000E001329A4202D0B15C2029F9D1072B1E
:100FC00005D806A8C118013311F8141C00E020212F
:100FD000B1540132072AF2D920460021FFF77FFCE5
:100FE0000546002840F0A0802046FFF70BFF05468D
:100FF000002840F0998009F101091FFA89F9B9F137
:10100000640FA9D1072599E09DF81730F372E761C5
:101010009DF8173003F00203DBB223B901260DE07F
:1010200001339BB200E0002337F81320002AF7D1E8
:1010300003F119060D2296FBF2F6B6B220463146B0
:10104000FFF764FE0546002878D1013EB6B2002EB7
:101050006DD0E188891B204689B2FFF740FC054628
:1010600000286BD1A069DFF8DC80FFF7A5F84FF608
:10107000FF7A0746D14620682169FFF7C2F9054685
:1010800000285BD16369D4F81CE05F730F22F0B2D3
:101090000D21DA72421E4A431D739D76DD76294684
:1010A000554518BF3EF8125011F808C018BF01325C
:1010B00003F80C5001319C444FEA152B002D08BF5A
:1010C00055460D298CF801B0EAD14D4502D03EF8C5
:1010D000122012B946F04000C0B2187023680122F5
:1010E00083F8042220460021FFF70BFD054628BBAC
:1010F000013EB6B2002EBED119E029462022606919
:1011000039F059FD0B226069A169FFF73DF8A2692A
:101110006369D27A02F018021A732368012283F8F5
:1011200004220BE0062509E0042D07D16CE72068B6
:101130002169FFF766F905460028DED0284607B08A
:10114000BDE8F08F8A6205082DE9F74F0B782F2B49
:101150000546894601D05C2B03D109F10109002322
:1011600002E00368D3F81432AB6099F800301F2B0B
:1011700006D828460021FFF7B2FB00236B6142E14D
:101180004F4609F101093B782F2BF9D05C2BF7D0A2
:10119000D5F81CA00023F85C5C1C1F281CD92F2844
:1011A0001AD05C2818D0B4F5807F00F02581012189
:1011B00046F00CF9002800F01F817F2806D8934ADA
:1011C00012F8013F13B18342FAD115E10AEB44034F
:1011D00023F8020C2346DEE707EB04091F2894BF1F
:1011E00004240024012B1E4600D10AE0022B04D166
:1011F000BAF802202E2A01D103E01E460AEB43036F
:101200001BE0BAF800202E2AF8D100222AF8132079
:10121000A9699A422CBF20202E20885401320B2A23
:10122000F6D1AB6944F020049CE033F8022D202A6B
:1012300002D02E2A40F0C780013E002EF5D1DBE01F
:1012400008F101083AF81820202AF9D02E2AF7D000
:10125000B8F1000F01D044F003043B4606E0013E24
:1012600004D100224FF0080B174604E033F8022D9A
:101270002E2AF4D1F5E73AF8180008F10108002801
:101280004CD0202804D02E2805D1B04500F0B680DF
:1012900044F00304EFE75A4502D2B04514D1ADE063
:1012A000BBF10B0F04D144F003044FF00B0B35E0FE
:1012B000B04502D044F0030430D8BF00FFB2B046BE
:1012C0004FF00B0B0822D6E77F280CD900210192A2
:1012D00046F07CF8019A18B14D4B181810F8800CA4
:1012E00044F0020430B14B4B13F8011F002976D0B3
:1012F0008142F9D144F003045F200BE047F002077C
:1013000008E0A0F1610189B2192903D8203847F01B
:10131000010780B2A96988540132ACE7AB691A7839
:10132000E52A01D105221A70BBF1080F01D1BF00D7
:10133000FFB207F00C030C2B03D007F00302032AC3
:1013400001D144F0020404F00202D2B24AB907F01B
:101350000307012F08BF44F01004042B08BF44F01A
:101360000804AB69DC7240E02846FFF74BFDAB692F
:10137000DB7AA0B1042846D103F02002D2B203F0F8
:1013800004003AB10023AB606B6100283FF4F8AE73
:10139000002038E0002814BF0420052033E003F0CB
:1013A0000403DBB2002BF3D16969CB7A03F010039D
:1013B000DBB233B12B6893F80002FEF788FFA86018
:1013C000DEE605201FE04FF000082AF81680A86925
:1013D00020210B220AEB460739F0EDFB32E7A0F1A2
:1013E000410189B2192989D98BE728460021FFF7E5
:1013F00076FA0028B8D0BAE7062004E0BBF10B0F5C
:101400007FF45BAF4FE7BDE8FE8F00BFB561050815
:101410000A620508BE6105081FB5019004A8009185
:1014200040F8041D144640F00DF8031E17DB0E486B
:1014300050F82310024611B1002081F800020198F3
:1014400010B1002180F8001242F8230050B1012CA5
:1014500007D101A869460022FFF732F802E00B200D
:1014600000E0002004B010BD402000202DE9F0472E
:101470008EB0164601910546002800F09D8000239D
:10148000036001A905A802F01E02FFF719F88046C3
:10149000002840F09A8002AB0B934E4B01990C93BD
:1014A00005A8FFF751FE0A9C18B9002C0CBF0620B6
:1014B000002016F01C0F06F01F0749D048B1042881
:1014C00002D105A8FFF72EFD47F008070A9C48B196
:1014D0007AE0E37A13F0110F75D106F00406F6B244
:1014E000002E6CD107F00803DBB2002B3ED03FF09A
:1014F0007FFFC0F307230026A073E373DDF8149089
:10150000E672030C000E237426776677A677E677DB
:10151000607499F800022146FEF7D9FE0123A676F1
:10152000E6762675667589F804320646F0B14846B7
:101530003146D9F830A2FFF732FC002844D1059893
:10154000013EC0F80C625146FEF75BFF70B13BE014
:10155000002839D1E37A03F01002D2B2002A30D148
:1015600006F00206F6B20EB1DB072CD407F0080332
:10157000DBB20BB147F02007059ED6F83032AF71D1
:101580000027EB612C62EF7196F800022146FEF70E
:101590009EFE2861A37FE27F1B0443EA0263227F51
:1015A0001343627FAF6043EA0223EB60B6F8063272
:1015B000AF612E60AB8008E04FF0090805E008201D
:1015C00002E0042000E00720804640460EB0BDE85F
:1015D000F08700BF3C1E00202DE9F74F99460023FD
:1015E000C9F80030044688461746FEF758FE0546FF
:1015F000002840F08180E3790BB11D467CE0A3799F
:10160000D90778D5E068A368C61AB74238BF3E4606
:101610006EE0A268D30548D1206890F80232013B01
:1016200003EA522313F0FF0B0CD10AB9206902E040
:101630006169FFF7F5F8012800D80BE0421C00D1E2
:1016400040E060612368616901931846FEF7A5FDDB
:10165000019B08B9022536E0770A00EB0B0A22D07D
:1016600093F8022293F8010207EB0B01914288BF25
:10167000CBEB020741465246FBB23FF05DFE00B1A4
:1016800020E0216891F804325BB1D1F83002CAEB56
:101690000000B84205D208EB40204FF40072FEF77C
:1016A00073FD7F021AE0C4F818A0A7682068A1693A
:1016B000FF05FF0DC7F50077BE4238BF3746FEF77E
:1016C000A0FE10B10125E57116E0A1682368C905E7
:1016D000404603EBD1513A46FEF756FDA368DB19AD
:1016E000A360D9F80030DB19B844C9F80030F61B04
:1016F000002E8ED100E007252846BDE8FE8F2DE99B
:10170000F74F99460023C9F800300446884616462C
:10171000FEF7C5FD0546002840F0B280E3790BB125
:101720001D46ADE0A37903F00203DBB2002B00F00D
:10173000A680A368DE4228BF002696E0A368DA05EB
:101740006CD1206890F802B20BF1FF3B0BEA532BEF
:101750001BF0FF0B18D133B9216971B9FFF778F984
:101760000146206103E06169FFF772F9014621B982
:10177000A368E26893427CD87CE0012900D115E09F
:10178000481C00D157E061612068A369D0F830227D
:101790009A4203D1FEF7A9FD00B14CE023686169CC
:1017A00001931846FEF7F9FC019B08B9022543E0B6
:1017B000770A00EB0B0A23D093F8022293F8010278
:1017C00007EB0B01914288BFCBEB02074146524623
:1017D000FBB23FF0D3FD834600B12CE02068D0F887
:1017E0003012CAEB0101B94208D208EB41214FF493
:1017F0000072FEF7C9FC236883F804B27F022AE076
:10180000A168E268914207D31846FEF76EFD00B169
:1018100011E02368C3F830A2C4F818A0A7682068B4
:10182000A169FF05FF0DC7F50077BE4238BF3746F7
:10183000FEF7E7FD10B10125E57121E0A0682368FE
:10184000C00503EBD0503A464146FEF79DFC2368A5
:10185000012283F80422A368DB19A360D9F80030C1
:10186000DB19B844C9F80030F61B002E7FF466AFD0
:101870007EE7E360A37943F02003A37100E007252E
:101880002846BDE8FE8F70B50546FEF708FD064602
:1018900000283CD1AB7903F02003DBB2002B36D01B
:1018A0002868E969FEF7ADFD064600282FD12C6AAD
:1018B000E37A43F02003E372EB682377AB891B0ADA
:1018C0006377EB89A377EB7BE3772B69C3F307227D
:1018D000A3761B0C23751B0AE27663753FF088FD27
:1018E000C0F30723A075E375030C000E2376607622
:1018F000A674E674AB7923F02003AB712B68012248
:1019000083F804222868BDE87040FEF71BBD30460E
:1019100070BD10B50446FFF7B6FF20B92046FEF7AC
:10192000BEFC00B9206010BD07B502AB43F8040D42
:1019300018463FF087FD002803DB034B187000209A
:1019400000E00B200EBD00BF6827002030B58FB02F
:1019500001A90190002205A8FEF7B2FD044610BBC4
:1019600002AB0B93114B01990C9305A8FFF7ECFB0D
:10197000044698B90A9921B9079A059BC3F814221D
:1019800011E0CB7A03F01003DBB25BB1059D95F853
:101990000002FEF79CFCC5F8140204E0042808BF0E
:1019A000052400E0052420460FB030BD3C1E002079
:1019B0002DE9F04796B000220DAE019088460270E6
:1019C00001A93046FEF77CFD0546002840F09480D2
:1019D00002AB13934A4B14930D9BD3F81432444635
:1019E0000F934FF02F095BE001213046FEF777FFA0
:1019F000014600285AD13046FFF704F9074600286F
:101A000056D10D9B129993F80002FEF760FC3946FF
:101A10000F903046FEF763FF00284BD1304600217F
:101A2000FFF7F0F80746C8B90D9B129993F800022A
:101A3000FEF74DFC82450AD1019B0C9405A9304666
:101A40000B93FEF7C8FB01990B7873B90BE039468D
:101A50003046FFF756F807460028DFD0042F14BFA2
:101A60003D46022529E00DF11D01002300E0013370
:101A7000CA5C002AFBD1DA1C94421DD3181BE71A5A
:101A80002246091805E0013A019811F802C000F851
:101A900002C0BA42F7D1DB43E418019B03F804907B
:101AA000DDF83CA0BAF1000F9ED106E0054604E047
:101AB000054602E0054600E01125019BD5B9114A13
:101AC000127832B9104A1168928819609A800633E8
:101AD00005E00E4A1188927819809A7003334445C4
:101AE00008D01A46019B1B5D013402F8013B4445B6
:101AF0001346F7D300221A70284616B0BDE8F087C7
:101B00003C1E002068270020441B0508C71B050851
:101B1000F8B504460F46FEF7C2FB0646002877D10B
:101B2000E3790BB11E4673E0E568AF4201D83D464C
:101B300005E0A37903F00203DBB2002BF7D100220A
:101B4000A368A2600DB9002553E0206890F80272E6
:101B50007F026BB1013B691EB1FBF7F1B3FBF7F2FA
:101B6000914205D37A421340A360ED1A61690EE0F9
:101B7000216959B9FEF76CFF0128014600D134E014
:101B8000421C02D10126E67142E020616161002918
:101B9000D9D01DE0A379206803F00203DBB223B1A2
:101BA000FEF756FF014618B915E0FEF739FE01466B
:101BB0004B1C00D1E6E7012917D92368D3F8183266
:101BC000994200D311E0A3686161DB19A360ED1BAA
:101BD000BD42DFD800E03D46A368EA052B44A36080
:101BE000B1D02068FEF7D9FA08B90226CBE700EB9E
:101BF0005525A368DA0503D0A269954218BFA561EF
:101C0000E268934204D9E360A37943F02003A3710F
:101C10003046F8BD10B586B00446019130B302A835
:101C200001A90022FEF74CFCE8B9029B0199236050
:101C300003ABA361144B2046E361FFF785FA68B953
:101C40006169A9B1CB7A03F01003DBB253B1029BF7
:101C500093F80002FEF73BFBA06009E0042801D0E6
:101C600078B100E00520002323600AE0092008E0A5
:101C7000029BB3F806322046A3800021FEF72FFE18
:101C8000ECE706B010BD00BF3C1E002010B50446B6
:101C9000FEF705FB00B9206010BD00007FB50546CA
:101CA0000E46FEF7FCFA044600BB26B9284621463C
:101CB000FEF715FE19E001ABAB610E4B2846EB6158
:101CC0002146FEF79FFF042801D12C6100E060B996
:101CD00028463146FEF77FFA00212846FEF711FF1D
:101CE000042802D100232B6100E00446204604B002
:101CF00070BD00BF3C1E002030B58FB00D46019076
:101D000001A905A80022FEF7DBFB044690B902AB4F
:101D10000B930A4B01990C9305A8FFF715FA04469B
:101D200040B90A9B2BB12DB105A82946FEF753FAFD
:101D300000E0062420460FB030BD00BF3C1E00204E
:101D40002DE9F34702AB144643F8040D88461046CC
:101D500019460022FEF7B4FB24680546002863D12B
:101D6000D4F81872D4F81032BA1E934202D8C8F8C8
:101D7000003059E094F80092B9F1010F11D1022717
:101D8000064639462046FEF74BFD411C3DD0012852
:101D90003DD000B90136D4F8183201379F42F0D354
:101DA00038E0D4F824120346024606464AB92046D3
:101DB00001F1010AFEF725FB58BB234651464FF4BB
:101DC0000072B9F1020F09D193F801C0187850EAF6
:101DD0000C2008BF01360233023A13E0987893F8DA
:101DE00003C0000440EA0C6093F800C040EA0C0015
:101DF00093F801C040EA0C2020F0704000B9013691
:101E00000433043A013FD1D104E0012502E0022568
:101E100000E0054694F80532C4F8106243F001036F
:101E200084F80532C8F800602846BDE8FC87000049
:101E300070B598B001A90190012206A8FEF740FBF9
:101E40000446002862D103AB0C93324B01990D93E9
:101E500006A8FFF779F90446002857D10C9BDB7AD6
:101E600003F02003DBB2002B40D141E0F37A13F002
:101E7000010F0CBF0024072400E00624069B314616
:101E800093F80002FEF723FA0546002C3ED1F37AC0
:101E900003F01003DBB2002B32D001282CD90FA89D
:101EA00006A92422FEF770F90FA802211195FEF76A
:101EB00016FD044650BB21460FA8FEF7A3FE0446BC
:101EC000E0B1069BD3F814329D4217D0042817D0F6
:101ED0001CE025B90698FEF735FA044616E0069888
:101EE0002946FEF75CFF044680B9F3E706240DE0BF
:101EF0000B9E002EBAD1C0E7022407E0072405E0BC
:101F000006A8FEF724FF04460028E2D0204618B0B9
:101F100070BD00BF3C1E00202DE9F04F91B0039032
:101F20003FF066FA03A98046012207A8FEF7C8FA27
:101F30000646002840F0D18004AB0D93694B03990D
:101F40000E9307A8FFF700F90646002800F0B380BB
:101F5000042840F0C2800D9BD97A01F02001C9B25B
:101F6000002940F0AA80A0E0012C00F0A880661CA7
:101F700000F0A780A9E0079F21463846FEF70DF93B
:101F800031464FF400720546384638F014FE2021E1
:101F90000B22384638F00FFE1023FB72C8F30723DC
:101FA0008DF80930FB75E3B20093BB76C4F30723C9
:101FB0008DF80A30FB76230CDAB24FF02E0B1B0A99
:101FC0005FFA88FAC8F307494FEA186801923A7530
:101FD0007B752022394687F800B087F816A087F86D
:101FE000189087F8198007F120008DF80B30FEF764
:101FF000CBF8079A87F821B092F80012099B0329C1
:1020000004D1D2F828128B4208BF002387F83A3057
:10201000C3F307211B0C87F834301B0A87F83B10E9
:1020200087F8353092F802B214E007980123C0F81F
:10203000305280F80432FEF758F90135064688B967
:10204000384631464FF4007238F0B5FD0BF1FF33DE
:102050005FFA83FBBBF1000FE7D107A8FEF762FF31
:10206000064620B107982146FEF799FE35E00C9B05
:10207000079883F816A01022DA729DF8092083F8D9
:102080001890DA75009A83F819809A769DF80A20DC
:10209000DA76019A1A759DF80B205A75012380F89B
:1020A0000432FEF74FF9064617E00798FEF7D0FC1A
:1020B000044640B158E708260FE006260DE0022648
:1020C000D0E70126CEE70726CCE70798FEF70DF903
:1020D000064600283FF44FAFC4E7304611B0BDE8D4
:1020E000F08F00BF3C1E002070B58EB001A901909A
:1020F000012205A8FEF7E4F90446002840F0968086
:10210000019B8DF808001A782F2A01D10133019321
:10211000019B002500E001355A5D002AFBD100E05B
:10212000013D45B9002105A80791FEF7D8FB0446FB
:1021300000287BD131E05A1912F8012C202AEFD067
:1021400000242646019B0121985D45F03FF945F0AA
:102150005BF90021013645F039F900285CD0354A99
:1021600012F8013F002B59D08342F9D154E00EAA56
:102170001319020A03F8302C01340EAA1319013482
:10218000AE4203F8300CDDD303E002AAA3540134BD
:1021900000E020230A2CF8D9C4E705A80121FEF7A6
:1021A00031FD60B99DF808302BB10A9802A90B22C5
:1021B000FDF7EAFF1BE00A9BE5221A7024E00428E1
:1021C00028D19DF808308BB305A80121FEF79EFDAC
:1021D000044658BB214620220A9838F0ECFC0B221A
:1021E0000A9802A9FDF7D0FF0A9B0822DA723FF095
:1021F000FFF80A9B98750A9BC0F30722DA750A9BC1
:10220000020C000E1A7658760598012380F80432E5
:10221000FEF798F8044609E0062407E0FF2802D8F4
:102220000A2CAAD9F8E7092CA1D9F5E720460EB067
:1022300070BD00BFC56105082DE9F04F89B008AB3E
:10224000894643F80C0D184615463FF0FBF8002868
:10225000C0F2B982B9F1010F00F2B7826B1E2B40B8
:1022600040F0B382B24A52F82040002C00F0AF8216
:1022700084F80032AF4B13F8106003EB4000407855
:10228000039030463FF040F8C30700F1A28200F00F
:102290000402D2B2002A40F09E820399304681B3F4
:1022A000214601233FF048F808B10120B3E294F839
:1022B000FE3194F8FF2143EA02229F4B12B29A4268
:1022C00001D00E20A7E2039A04EB021393F8B22187
:1022D00003F5D773002AF4D09F7ADA7AD97B3F04CA
:1022E00047EA02671A7A17435A7A47EA02279A7B23
:1022F000120442EA0162197B5B7B0A4342EA032330
:102300000EE0012107AA3FF05BF80028CDD1079B22
:102310007F2BCAD9B9F1000F0CBF3F270027DB1B69
:10232000079375B9079B85494FF4FA62B3FBF2F343
:1023300000E0013531F815209342FAD3804B33F891
:1023400015505FEA552A05D0BAF1800F28BF4FF02B
:10235000800A01E04FF0010A079A40F6F573B2FBDC
:10236000FAF8984540F2478203F57043984500F229
:1023700034824AE208F2FF1820234FEA58280293D9
:102380004FF0010B0BEB07010191029901EB0803E0
:1023900001995B18C7EB0A01C9188A4291D33046EC
:1023A000032106AA00933FF00BF8009B20B9069A80
:1023B00012B1B2F5004F01D901220692069A511EC0
:1023C000C91852420A40D31A032D069304D1019A28
:1023D000D2189B44019200E09844079B0299CBEBF2
:1023E0000302C8EB0202521AB2FBFAF2022D049267
:1023F00006D1049940F6F57291427FF662AF10E083
:10240000032D07D1049A4FF6F5739A427FF659AF20
:102410000C230CE0012D04D1B3F5803F06D3062335
:1024200005E0B3F5803FFAD2042300E02B46039980
:1024300059B104EB0112304682F8B2312146002234
:10244000012347E04FF0F8094BE0B9F1000F46D106
:1024500049464FF400722046009338F0ACFB4FF031
:10246000010E84F8BFE184F8C0E184F8C191009BBB
:1024700084F8C79184F8C231FE2384F8C331079BE6
:1024800084F8C891F91843F6C162B1FBF2F29108E1
:10249000069284F8C5213F2284F8C621C3F307229F
:1024A00084F8CA3184F8CB211A0C1B0E84F8CD3184
:1024B000552341F03F0184F8FE31AA2384F8C4116A
:1024C00084F8CC2184F8FF3184F8C9913046214644
:1024D0004A4673463EF052FF0028B3D0E5E64FF07F
:1024E000F00900214FF40072204638F064FB0B2203
:1024F00020461449FDF748FE0023E3726374032D60
:1025000018BF0223A374079B84F80DA00222227334
:10251000CBF3072C0122B3F5803F227484F80EB070
:1025200084F80FC09AB20FD2120AE374227516E033
:1025300040200020C05F050855AAFFFF98620508EB
:10254000A0610508D6610508120A84F8203084F8D5
:1025500021201A0C1B0E84F8222084F823303F23FC
:102560002376FF23A376C7F3072363773B0C4FF053
:10257000000BA3773B0EE37784F8159084F819B02D
:1025800084F81BB027773EF033FF032D069083B20B
:1025900035D11B0A84F84430030C84F84530C8F365
:1025A000072384F825304FEA184384F826304FEA91
:1025B000186384F82730022384F82C30012384F830
:1025C0003030062384F83230802384F8430084F8C6
:1025D0004030000E292384F8460084F8248084F8D3
:1025E0002DB084F82EB084F82FB084F831B084F880
:1025F00033B084F8423004F14700884918E01B0AE0
:1026000084F82830030C84F82930C8F30723E375D5
:10261000802384F8270084F82430000E2923804981
:1026200084F82A0084F8168084F8263004F12B0000
:102630001322FDF7A9FD552384F8FE31AA2384F85F
:10264000FF31304621463A4601233EF097FE0028EE
:102650007FF42BAE032D05D130462146BA1D012350
:102660003EF08CFE002120464FF4007238F0A3FAB1
:10267000032D13D06B4B012D18BF6FF0FF0343EAFE
:10268000090306932370BDF818301B0A6370BDF868
:102690001A30A3709DF81B30E37017E069F0FF0358
:1026A00006932370BDF818301B0A6370BDF81A300A
:1026B000A3709DF81B30E370FF2323716371A37136
:1026C000E37123726372A3720F23E372019A2146AE
:1026D0003046012302F101093EF050FE0146002878
:1026E0007FF4E3AD20464FF4007238F064FA012322
:1026F00006930EE0304621464A46012309F1010BBC
:102700003EF03CFE00287FF4D0AD069B01330693DB
:10271000D946069B4345EDD3029B032D18BF9A462D
:10272000CA44304621464A46012309F101083EF0D9
:1027300025FE00287FF4B9ADC245C146F1D1032D75
:1027400038D17221522384F8E41184F8E5110499F8
:102750002370637061234122A37084F8E7314B1E1C
:10276000E27084F8E621C3F3072284F8E83184F8A4
:10277000E9211A0C1B0E84F8EB31022384F8EC31AA
:10278000552384F8FE31AA2384F8EA2184F8ED0168
:1027900084F8EE0184F8EF0184F8FF3121467A1CB9
:1027A000012330463EF0EAFD30462146FA1D012362
:1027B0003EF0E4FD002130460A463EF001FE0030C6
:1027C00018BF012027E00B2025E0132023E00C2078
:1027D00021E003201FE00A201DE008F182084FEAF3
:1027E000880808F1FF3800234FEA58280325029390
:1027F0004FF0200BC6E5032303FB08F808F101089E
:102800004FEA580898440125B4E508F102084FEA58
:1028100048080225AEE509B0BDE8F08FE261050881
:10282000F661050800FFFF0003685A6B12F0450FC0
:10283000FBD05A6B520703D504229A6303207047DA
:10284000586B10F0010002D001209863704740F2ED
:10285000FF529A637047000070B5426A86B0120456
:102860000023044601920D22009302920493402219
:102870004FF480630D460068059301A9039242F06E
:102880003BFF23685A6B12F0450FFBD05A6B500781
:1028900003D504229A6303207CE0586B10F00106F4
:1028A00002D00120986375E0184642F038FF0D28E9
:1028B00001D010206EE0236840F2FF529A63304648
:1028C00042F030FF0090009B3348C3F343232B704A
:1028D000009B184000285DD0009B002B39DB009B3B
:1028E000590038D4009B9A0037D4009BDB0036D4C3
:1028F000009B180135D4009B590134D4009BDA01A8
:1029000033D4009B1B0232D4009B5802D1D4009BCD
:1029100099022ED4009BDA022DD4009B1B032CD4E9
:10292000009B58032BD4009B99032AD4009BDA0305
:1029300029D4009B1B0428D4009B580427D4009B57
:10294000990426D4009B13F0080F0CBF00201A2016
:1029500020E01C201EE009201CE00A201AE00B20C9
:1029600018E00C2016E00D2014E00E2012E00F20DD
:1029700010E011200EE012200CE013200AE01420D9
:1029800008E0152006E0162004E0172002E01820D9
:1029900000E0192006B070BD08E0FFFD036870B5C7
:1029A00004460E465A6B12F0450FFBD05A6B510786
:1029B00003D504229A63032070BD586B10F0010503
:1029C00002D00120986370BD184642F0A8FEB042C4
:1029D00058D1236840F2FF529A63284642F0A2FE83
:1029E000294B0340002B29D0002829DB420029D4A1
:1029F000830029D4C10029D4020129D4430129D458
:102A0000C10129D4020229D443023BD4810227D434
:102A1000C20227D4030327D4410327D4820327D437
:102A2000C30327D4010427D4420427D4830427D422
:102A300010F0080F0CBF00201A2070BD184670BDA2
:102A40001C2070BD092070BD0A2070BD0B2070BD18
:102A50000C2070BD0D2070BD0E2070BD0F2070BD0C
:102A6000112070BD122070BD132070BD142070BDE8
:102A7000152070BD162070BD172070BD182070BDC8
:102A8000192070BD102070BD08E0FFFDF0B58FB0BB
:102A900000231024402205460193029306930E461C
:102AA0004FF4806303A908270068049405920793F4
:102AB000039742F021FE21462846FFF76FFF0446A8
:102AC000002861D16B6A28681B04372403A903938B
:102AD000049442F011FE21462846FFF75FFF0446AA
:102AE000002851D14FF0FF33089330230A9302237B
:102AF0000B930C90012308A928680D93099742F0C5
:102B00001DFE039403A933242868049442F0F4FDC5
:102B100021462846FFF742FF0446002834D16F467D
:102B200006E0426B920204D542F0D2FD47F8040F52
:102B30002868416B40F22A620A40002AF1D0426BB9
:102B4000130703D50822826304241DE0426B91071A
:102B500002D50224846317E0426B920603D520223B
:102B60008263062410E0426B930504D54FF4007293
:102B70008263072408E0019B40F2FF521BBA826384
:102B80007360029B1BBA336020460FB0F0BD10B5D6
:102B90000446006842F0A8FD20463EF0B9FA002045
:102BA00010BD036A81F85630436AA1F8543090F89A
:102BB0002B309A090A70C3F3830203F003034A70AF
:102BC0008B7090F82A30CB7090F829300B7190F808
:102BD00028304B71C36A1A0E1201CA80CA88C3F327
:102BE000074392B242EA131203F00F03CA800B723A
:102BF000F0B590F82D70FB094B72C7F380138B7200
:102C0000C7F34013CB720646C7F3001300200B73C3
:102C10004873336A012B3FD807F00307BF020F61E7
:102C20000B6996F82C2043EA82030B610A6996F837
:102C3000333042EA93120A61C3F3C20203F007037E
:102C40000A754B7596F832305A098A75C3F38202B9
:102C500003F003035B00CA750B760B7E96F83170A8
:102C600043EAD7130B76D1F810C00A7E0C7A012301
:102C7000023203FA04F403FA02F2D5170CF1010C44
:102C8000A2FB042304FB05330C65A2FB0C450CFBE3
:102C90000355C1E9124524E0022B21D1F36A376BB9
:102CA00003F03F031B040B610B693A0E43EA022356
:102CB0000B610B69C7F3074213430B610C690122D7
:102CC0000023121943F10003DB0443EA5233CB64BF
:102CD000D2044FF40073C7F307278A640B6500E042
:102CE0002920C7F3801307F03F077F004B768F76CC
:102CF000336B8C7EC3F3C012224303F07F038A76CA
:102D0000CB7696F83730DA090A77C3F341124A775F
:102D1000C3F3820203F003039B008A77CB7796F814
:102D20003630CA7F42EA9312CA77C3F3401281F861
:102D3000202003F00103002281F8212081F82230B5
:102D400096F83530DA0981F82320C3F3801281F830
:102D50002420C3F3401281F82520C3F3001281F828
:102D60002620C3F3810203F0030381F8272081F8B2
:102D70002830736B0122C3F3460381F8293081F8B0
:102D80002A2096F83B3081F82C30B36BC3F307440C
:102D90002402CC85CC8DC3F30725A4B22C431B069B
:102DA000CC850B63F36B0C6B1D0E44EA05440C637E
:102DB0000C6BC3F3074544EA05240C630C6BC3F3A7
:102DC00007252C43DBB20C6381F8343096F843308E
:102DD00081F83530336CC3F3074424068C638C6B65
:102DE000C3F3072544EA05448C638C6BDBB244EAE9
:102DF00003238B638C6B736C44EA13648C6391F8CC
:102E00003C40C3F3074344EA131403F00F031B02CF
:102E100081F83C40CB87CC8F736CA4B2C3F30725F9
:102E20002C43C3F34603CC8781F8403081F841201E
:102E3000F0BD00002DE9F04F95B0002504460E4688
:102E400007953EF05DF9762313931195129514AB17
:102E500013E907008DE807000E950F951095974F21
:102E600020680EAB0ECB42F017FC089520683D6041
:102E700042F036FC01233B60206809954FF48063E3
:102E800009A90D930A950B950C9542F035FC206825
:102E9000426B4FF48033C2F3C01204E0426B013B3B
:102EA000C2F3C01202D0002AF8D063E103230893D2
:102EB000089B03B19EE04FF4D573099308230A934E
:102EC00009A940230B9342F017FC2068436B13F0D1
:102ED000450F0CBF002201224FF4803306E0426B05
:102EE00012F0450F0CBF00220122013B0AB9002B52
:102EF000F5D1426B13B112F0040303D004238363B2
:102F0000032306E0426B550602D54022826300E0AF
:102F100029230893089A002322B9012222624FF044
:102F2000804800E09846372509A909930A9542F0A0
:102F3000E3FB29462046FFF731FD0890089D002D50
:102F400041D057E0372309A94FF0400B4FF4806A76
:102F500020680A9305930995CDF82CB00C95CDF80F
:102F600034A042F0C9FB059B20461946FFF716FD29
:102F70000890089B03B13DE0292320680A9309A922
:102F8000CDF82480CDF82CB00C95CDF834A042F0CB
:102F9000B3FB23685A6B12F0450FFBD05A6B12F04B
:102FA000040203D004229A63032303E040F2FF519A
:102FB000996313460893089800B11BE042F0B2FBF6
:102FC0000137C50F07E048F000482F4628464FF666
:102FD000FF7948F4801815B94F45B3D103E04FF697
:102FE000FF739F4202D11B23089303E0410001D5E8
:102FF00002232362089B0793079D05B1B8E0206870
:1030000042F076FB002800F08580236A042B21D053
:1030100002230A93C0230B9309A94FF4806320680D
:1030200009950C950D9342F067FB2046FFF7FCFBDA
:103030000546002871D142F075FBA063042042F0E0
:1030400071FBE063082042F06DFB20640C2042F02D
:1030500069FB6064236A012B03D9062B01D0022B84
:1030600034D103230A932068402309A90B9342F02B
:1030700043FB23685A6B12F0450FFBD05A6B520783
:1030800003D504229A63032547E0586B10F001052D
:1030900002D001259D6340E0184642F040FB032822
:1030A0006DD1236840F2FF529A63284642F03AFB02
:1030B00010F4604F04D1000C09E000BFA08025424D
:1030C00083045ED445045AD400045CD40120236AEE
:1030D000042B21D060620923000409900A9309A9F6
:1030E000C02320680B9342F007FB2046FFF79CFBB0
:1030F000054690B942F016FBA062042042F012FB94
:10310000E062082042F00EFB20630C2042F00AFB34
:10311000606302E0252500E000250795079B03B1C9
:1031200026E020463146FFF73CFD0790079BA3B9F8
:10313000B6F854200C9312044FF4806309920725CB
:10314000402209A920680B920D930A9542F0D4FA07
:1031500020462946FFF722FC079004F1100393E86C
:1031600007008DE80700231D0ECB206842F094FA7B
:1031700007980AE040F2FF538363002397E6102587
:10318000CBE71325C9E70F25C7E715B0BDE8F08FDA
:10319000F0B5036A032B93B005460E4600F0868017
:1031A000022B00F28180B1F5805F7FD0B1F5006F16
:1031B00029D100200590069042F0B4FA800158D43D
:1031C000284605A9FFF762FC0446002871D1069B3A
:1031D000590350D56B6A0A901B0407934023372785
:1031E000099307A94FF4806328680B93089742F06E
:1031F00083FA28463946FFF7D1FB0446002858D108
:103200000223079329E0002952D10846059106912F
:1032100042F088FA82012CD4284605A9FFF736FC33
:103220000446002845D1069BDB0324D56B6A0A902F
:103230001B04079340233727099307A94FF48063A2
:1032400028680B93089742F057FA28463946FFF74B
:10325000A5FB044600282CD10790062407A928685E
:10326000089442F049FA21462846FFF797FB0446A6
:1032700003E00E241DE025241BE0D0B96B680F96F7
:103280000C93AB680D93EB680E936B691093AB696D
:10329000119312AB13E907008DE807000CAB0ECBBE
:1032A000286842F0F9F904E0002402E0272400E055
:1032B0002624204613B0F0BD30B587B00023054664
:1032C00001930C244022049301A94FF48063006809
:1032D00002940392059342F00FFA28462146FFF725
:1032E0005DFB07B030BD2DE9F04704468CB00068A7
:1032F000149E984600238DF80330C362236A022B84
:103300000ABF4FF4007802FB08F99146402303936B
:103310000023102504930F464FF4806301A9029502
:103320000593CDF8048042F0E7F929462046FFF7DF
:1033300035FB0546002840F0CD80012E01D9192328
:1033400000E018232068029301A9CDF8049042F010
:10335000D3F9012E204601D9192100E01821FFF7E9
:103360001DFB0546002840F0B5804FF0FF33069363
:1033700090230893099001230A9006FB08F820681F
:10338000CDF81C8006A90B9342F0D8F9012E2CD859
:1033900063E0516B490429D5C5EB08021F2A17D8F1
:1033A00012F0030F4FEA920A18BF0AF1010A4FF018
:1033B000000904E0206842F08EF909F101094FEAA2
:1033C0008903D14507EB0301F4D1ED180F460CE05A
:1033D000994607EB0901206809F1040942F07BF9DD
:1033E000B9F1200FF5D1203720352268516B40F21A
:1033F0001A330B40002BCCD023685B6BD80534D438
:103400003BE0516B490429D5C5EB08021F2A17D8A8
:1034100012F0030F4FEA920A18BF0AF1010A4FF0A7
:10342000000904E0206842F056F909F101094FEA69
:103430008903D14507EB0301F4D1ED180F460CE0E9
:10344000994607EB0901206809F1040942F043F9A4
:10345000B9F1200FF5D1203720352268516B40F2A9
:103460001A630B40002BCCD0C6E7012E05D9236A86
:10347000022B02D82046FFF71FFF23685A6B120762
:1034800003D508229A63042524E05A6B950702D5D8
:1034900002259D631EE05A6BD00603D510229A6365
:1034A000052517E05A6B910504D54FF400729A6315
:1034B00007250FE040F2FF529A630DF10306204604
:1034C0003146FFF7C9F9054620B99DF80330063BA0
:1034D000012BF4D928460CB0BDE8F0872DE9F04364
:1034E0000446006898460023C362236A8DB0022B0D
:1034F0000ABF4FF4007802FB08F99146402303937A
:103500000023102504930E464FF4806301A9029511
:103510000593149FCDF8048042F0EEF8294620462A
:10352000FFF73CFA0546002840F095804FF0FF3346
:10353000069307FB08F3079390230893022309934C
:103540000A90012320680B9306A942F0F7F8012F97
:1035500001D9122300E011230CA9206841F82C9D09
:10356000029342F0C9F8012F20461CD91221FFF71F
:1035700015FA00286ED10EE0516B09040CD598465F
:10358000206842F0A5F846F8080008F10408B8F1F0
:10359000200FF5D120362268516B40F22A330B40C0
:1035A000002BE9D01BE01121FFF7F8F9002851D1D9
:1035B0000EE0516B08040CD59846206842F088F85C
:1035C00046F8080008F10408B8F1200FF5D12036BC
:1035D0002268516B40F22A630B40002BE9D023682C
:1035E0005B6BD90508D5012F06D9236A022B03D8B6
:1035F0002046FFF761FE054623685A6B120703D584
:1036000008229A63042526E05A6B900702D502250A
:103610009D6320E05A6B910603D520229A6306250C
:1036200019E05F6B17F4007709D04FF400729A63CA
:10363000072510E042F04CF846F8270001372068D3
:10364000436B9A0203D440F2FF53836303E07B1C75
:10365000F0D1F8E7054628460DB0BDE8F08300003C
:020000040802F0
:10000000C0F808E0C460056146618761C0F81C80E3
:10001000C0F82090C0F824A0C0F828B0C0F82CD0B8
:10002000024B1A6802601860002070478C010020A3
:10003000024B1A6812681A60704700BF8C010020DA
:100040005FF818301A68002A1AF05E835060106852
:100050001860D2F808E0D468156956699769D2F833
:100060001C80D2F82090D2F824A0D2F828B0D2F880
:100070002CD00120704700BF8C01002010B500215A
:10008000044600F0FBFA28B924B12046BDE8104030
:100090000BF044B810BD002100F0F0BA10B50121FA
:1000A000044600F0EBFA28B924B12046BDE8104020
:1000B0000BF034B810BD38B50546FFF7DFFF044636
:1000C00028B925B12846BDE838400BF027B82046AE
:1000D00000212A461AF06FFD204638BD10B51146A2
:1000E000144600F0BFFB28B924B12046BDE81040FB
:1000F0000BF014B810BD114600F0B4BB00F074BB97
:10010000374B1968374B2DE9F00F1868364B40F222
:10011000A812D3F8009040F29C13C2F20002C2F27F
:10012000000382B015681B68AA46019340F2B01321
:10013000C2F200039D4242D95AF8046C043D0023E8
:100140000133F218940802F003020C5D520044FAE5
:1001500002F202F00302022AF2D09B0000EB061624
:100160003CD0043EAA4601E0013BDFD056F8042F04
:100170001707F9D19042F7D8141A4FEA941C2409B2
:1001800004F003077F004A450097EDD211F80C20D8
:1001900042FA07F808F00308B8F1010FE4D14FF074
:1001A000030B0BFA07F73A4301F80C200F4A95426C
:1001B00036BF45F8044BCDF80480AA46D4E740F298
:1001C000A81740F29C13C2F20007019A3D60C2F2E8
:1001D00000031A6002B0BDE8F00F7047AA46A5E719
:1001E000A401002000000020A0010020B002002097
:1001F0000307F0B416D11A4B1B68984212D3194A60
:10020000126882420ED9C01A174B85091C6803096F
:10021000625D03F003014E0042FA06F606F00306A3
:10022000012E01D0F0BC7047104E3768BD422EBF82
:100230002846356080090326490006FA01F122EAC2
:10024000010201332254980803F00301225C4D009F
:1002500042FA05F505F00305022DEDD0E2E700BFF7
:1002600000000020A0010020A4010020980100202F
:100270002DE9F04721F00F052C1A42F6F343CFF693
:100280002323E40040F2AC18A3FB042440F2A41E94
:1002900040F2901740F2000640F2A013C2F20008AC
:1002A000640AC2F20003C2F2000EC2F20007C2F2F8
:1002B000000600EB04092246A5EB841A0021C8F8C9
:1002C0000040A4001D60CEF80000C7F80090C6F8FA
:1002D00000A01AF070FCE21D0021D20848461AF076
:1002E0006AFC40F29412C2F2000240F2981142F20B
:1002F00048030020C2F20001C2F200031080012274
:1003000008601A80BDE8F08740F29413C2F200033F
:100310001A8801321A80704740F29413C2F2000327
:100320001A88013A1A80704740F29413C2F200030F
:100330001888003018BF0120704700BF40F29413A6
:10034000C2F2000340F29C111888C2F20001013091
:1003500040F2A81218800023C2F200020B6040F2A3
:10036000B013C2F200031360704700BF2DE9F04FD5
:100370000E4683B069B3244FDFF89080DFF8909089
:10038000DFF890A0DFF890B0051F002455F8040FA7
:10039000020719D13B68984216D3C31A9A090192F1
:1003A0001B09D8F8002003F00301490082420BD951
:1003B000D9F800C0019A1CF8020040FA01FE0EF0C4
:1003C000030EBEF1010F07D00134FFF799FEB442CE
:1003D000DCD103B0BDE8F08F032202FA01F108433B
:1003E000DAF80010019A594528BF40F29C130CF826
:1003F00002002BBFC2F2000341F8043BC3F800E047
:10040000CAF80010E0E700BF00000020A0010020B3
:10041000A4010020A8010020B00200202DE9F04F27
:1004200040F2AC10604EDFF88CB13168DFF88881A3
:10043000DFF88891C2F2000087B004680027A400AA
:1004400029B33760CBF80080002C44D0D9F800A045
:10045000002502E00135A54216D0AA0805F00303E5
:100460001AF802205B0042FA03F303F00303032BA4
:10047000F0D1DBF8003043F8045B0135CBF80030F5
:10048000FFF73EFEA542E8D131680029D9D114B367
:1004900040F2A412C2F20002DFF824B113680D4644
:1004A00006E003286FD001281FD00135A54212D2E3
:1004B000AE0805F0030713F806C07F004CFA07F0FA
:1004C00000F00300022803EB0602EAD1002951D113
:1004D0000135A542ECD3354B35491A880020013A45
:1004E00008601A8007B0BDE8F08F4FEAD508DBF846
:1004F00000A01AF8081005F0070941FA09F0C00732
:10050000C24437D540F20000C2F200004FEA051C99
:100510000068039050F80C0001900398604402902A
:100520000198F0B10298202104AA09F079FF049BF8
:1005300023B10020014604AA09F062FF40F2A41191
:1005400040F2AC1CC2F20001C2F2000CDBF8002049
:100550000B68DCF8004012F8081002EB080AA4004F
:100560009A19012000FA09F921EA09018AF8001014
:1005700092F800C0032101FA07F72CEA070C82F871
:1005800000C0012191E740F2AC11C2F2000102204B
:100590000C6800FA07F72CEA070C82F800C000216B
:1005A00004FA00F481E700BF9C01002094010020C0
:1005B00098010020A8010020B0010020A401002023
:1005C00090010020294B1A68294B1B68D31A294A2D
:1005D000F0B41568002123F00303AD00036041600F
:1005E0008160C1600161416137D0234B8C461E6838
:1005F0000C460B4607E0022A02D101344460013167
:100600000133AB421AD09F0803F00302F75D52009A
:1006100047FA02F202F00302012AECD8012914D0B1
:10062000022916D047698F4238BF4161012A16D18D
:1006300001330134AB4244601146E4D124014FEA56
:100640000C1544608560F0BC7047C7680137C7600F
:10065000E8E7076901370761E4E72C46F1E7CAD20A
:100660000CF1010CC0F808C00021C9E7A00100206E
:1006700000000020AC010020A40100202DE9F04F73
:10068000524B1C8800F10F0683B08146884636091C
:10069000002C40F09680002E00F093804C4BDFF849
:1006A00040A11888DFF83CB14A4AD0F1010038BFB8
:1006B0000020DAF80050DBF800108D422DD21768C8
:1006C00017E00134A64230D913F00C0F19D10134D0
:1006D000A64270D913F0300F17D10134A6426DD95C
:1006E00013F0C00F15D10134A6426CD901358D42EB
:1006F00013D27B5D13F0030FE3D0002413F00C0F33
:10070000E5D0002413F0300FE7D0002413F0C00F21
:10071000E9D0013500248D42EBD3002851D101925C
:100720001DF0FCFF0120019AC3E7AD002B1B5E1CEE
:1007300005F1010E012C04BF4FEA9E02CAF8002009
:10074000B20806F00301B85C4900012404FA01F183
:100750000233014302209D42B9540BD39C0803F09D
:1007600003013A5D490000FA01F1013311439D4252
:100770003955F3D2184B1F6835017C19C6EB0E02B0
:1007800004EB09000021C9EB02121AF014FAB8F1C7
:10079000000F0CD0114A00237B511268F30801218D
:1007A000D05C06F0070601FA06F10143D154204659
:1007B00003B0BDE8F08FAD000135B7E7AD000235FD
:1007C000B4E70024F3E7AD000335AFE79401002060
:1007D00048200020A40100200000002090010020FB
:1007E00098010020AC010020024B1B880BB9FFF7D9
:1007F000FFBC70479401002010F00F0310B429D102
:10080000154A1268904222D31449096881421ED9C0
:10081000801A134A146882090109A05C01F00302DE
:10082000520040FA02F202F00302012A18460FD1E8
:1008300001300B189A0803F00303A25C5B0042FA34
:1008400003F303F00303022BF2D0000100E018468B
:1008500010BC70470020FBE700000020A001002032
:10086000A40100202DE9F047DFF88CA1BAF8003090
:1008700005468946002B60D1002800F0A68000299B
:1008800000F0A98010F00F0C57D1554B1968884221
:1008900053D3544B1B6883424FD9534B411A1C68A6
:1008A0008B090909E35C01F003084FEA480843FAA1
:1008B00008F808F00308B8F1010F3ED14B4B186857
:1008C00009F10F0280004E1C1209B04214D9B3087E
:1008D00006F00307E35C7F0043FA07F707F003071E
:1008E000022F08BF08F101082BD02FB90CF1010C21
:1008F0000CEB08039A4224D842451FD025D2B8EB0E
:10090000020802EB01070FD0B8443B4603269A08C1
:1009100003F00301A05C490006FA01F1013320EA6B
:1009200001014345A154F2D1314B1A68BF089742E7
:1009300038BF1F602846BDE8F08700252846BDE87F
:10094000F0870136B042C2D8D6E7C44462451DD80C
:1009500008EB01035718BB4238BF4FF0020E0BD211
:100960009E0803F00301A05D49000EFA01F1013376
:100970000143BB42A155F3D105EB09000021C9EBAE
:1009800002121AF018F92846BDE8F087194ACB0878
:100990001268D35C01F0070143FA01F1484601F007
:1009A0000101FFF76BFE04460028C6D029464FEA36
:1009B00008121AF0BDF8BAF8003023B92846FFF73C
:1009C00017FC2546BAE72546B8E708462946BDE89C
:1009D000F047FFF753BEFFF70BFC4D46AEE700BFF5
:1009E00000000020A0010020A4010020AC01002094
:1009F0009801002090010020940100202DE9F84F7B
:100A00004F4F504E504839681DF02EFE3068800020
:100A100000F091804D4DDFF848814FF0000B20E051
:100A20000BF003094FEA9B0A4FEA49092B6813F8B8
:100A30000A3043FA09F909F003097420B9F1020FE9
:100A400007D06D20B9F1030F03D02E20B9F1010FAB
:100A50004BD01DF021FE30680BF1010B8000584592
:100A600069D91BF03F0FDBD158459EBF0BF003093E
:100A70004FEA9B0A4FEA49092CD929684FEA9B0A99
:100A80000BF0030911F80A304FEA490943FA09F358
:100A90009A071FD15C4604E08A5C42FA03F39B0785
:100AA00006D1013404F00303A2085B008442F3D3AF
:100AB000CBEB04017F290DD9890925481DF0D4FD10
:100AC000336824F03F0BBBEB830F34D24FEA9B0A11
:100AD0004FF000093B681F4803EB0B1121F07F41E9
:100AE00021F470011DF0C0FDA0E73B684FEA0B1236
:100AF00054209B584345ACD04EF27852C0F60402C5
:100B00004C209342A5D04DF27872C0F604024420E6
:100B100093429ED04EF28C12C0F6040246209342BD
:100B200097D00D4A4220934293D00C48984214BF6C
:100B300068204D208DE70A20BDE8F84F1DF0ACBDC0
:100B400000000020AC01002084740408A4010020EF
:100B5000A0740408BC74040864E204089CE7040858
:100B60008CF80408074B07E05A68904204D3821AB5
:100B7000043253F8220070471B68002BF4D118464A
:100B8000704700BFB002002070B5114C2268936816
:100B9000D2689A4206460FD3981CC000FFF76EFA3F
:100BA00022682060D5685168026092685200691816
:100BB000826000224160C260054B1B68DA68586899
:100BC000111D0138013243F82160DA60801870BDD0
:100BD000B0020020411841F2055304E010F8012B47
:100BE00003EB431353408842F8D398B2002808BF60
:100BF00001207047014A024B1A60704774A1040833
:100C0000B00200202DE9F84F80460E46FFF7E2FFC4
:100C1000174B81461C6826E0E36804F11007043393
:100C200004EB830A3D461AE055F8040B417802783C
:100C300042EA01224A4512D1C178827842EA012271
:100C4000B2420CD104304146324619F0D7FF30B9D8
:100C50006368C7EB0B0703EBA700BDE8F88F5545AA
:100C6000AB46E1D32468002CD6D12046BDE8F88FEE
:100C7000B00200202DE9F04106460D46FFF7C2FF05
:100C80008046D8B929463046FFF7A4FF0746681DBD
:100C9000FFF7F4F92B0A07703F0A04464770857086
:100CA000C3702A460430314619F042FF65192046C8
:100CB00085F80480BDE8F041FFF766BFBDE8F0812C
:100CC00010B5044619F0ADFF01462046BDE81040BE
:100CD000FFF7D0BF38B5044605300D46FFF7CEF913
:100CE000286084702B68240ADC702868043038BDC2
:100CF000F8B58378C578071D43EA052504462946DB
:100D00003846FFF77FFF064668B929463846FFF7A1
:100D100061FF65192070000A607020462E71BDE8E1
:100D2000F840FFF731BF2046691DFFF7E7F930466D
:100D3000F8BD08B5FFF716FF4278007840EA0220B8
:100D400008BD08B5FFF70EFFC278807840EA0220A0
:100D500008BD08B5FFF706FF043008BD10B50C4606
:100D6000FFF700FFC278837843EA02232360043050
:100D700010BD00002DE9F84F1D46002303600B60F5
:100D800013602B60184B0746884616461C6821E006
:100D90003B6801333B60D8F80020E368D318C8F8FB
:100DA0000030E368043304F1100904EB830A07E020
:100DB00059F8040BD6F800B0FFF71EFD5844306018
:100DC000D145F5D32046D5F80090FFF715FD2468EE
:100DD0004844286014B1054B9C42D9D12B68326835
:100DE0009B182B60BDE8F88FB002002074A10408A6
:100DF00038B5456801356D1801688D42044612D931
:100E0000037B9B0711D46D0025F00705083580682A
:100E10002A46FFF763F920B9237B43F001032373CC
:100E200038BD2560A060012038BD002038BD38B530
:100E30000446002501298CBF084602202060656019
:100E4000FFF71CF9A06018B9237B43F0010305E00C
:100E50000570237B03F0FE0365F34103237338BD64
:100E600000234360016082601370037B03F0FE0384
:100E700043F002030373704710B5037B9A070446DF
:100E800003D480682168FFF739F90023A36010BDFF
:100E900010B51020FFF7F2F8044610B12021FFF73B
:100EA000C6FF204610BD38B505461020FFF7E6F80E
:100EB000044610B12946FFF7BAFF204638BD10B5E9
:100EC000044660B1037B990703D480682168FFF76B
:100ED00015F920461021BDE81040FFF70FB910BDED
:100EE0008268002343601370027B63F30002027385
:100EF0007047007B00F001007047037BDB0754BFA5
:100F0000806800207047037BDA0754BF40680020E8
:100F1000704738B5037B0D469907044611D4016824
:100F200080686A18FFF7DAF8034620B9227B42F09E
:100F30000102227338BD2268A360AD1880182560B5
:100F400038BD002038BD38B5037B044698070D46F0
:100F50000FD4A06821682A46FFF7C0F820B9237B88
:100F600043F00103237338BDA06065602560012054
:100F700038BD002038BD4168FFF7E5BF70B5037B81
:100F8000C3F30005DB0704460E4601D5002070BD03
:100F9000FFF72EFF0028F9D06268A368B1186160DE
:100FA00098185D5470BD10B50C460121FFF7E6FF9F
:100FB00000B1047010BD7F2910B50C4606DC01217C
:100FC000FFF7DCFF002840D0047010BDB1F5006FC2
:100FD0000EDA0221FFF7D2FF002836D0A31104F069
:100FE0003F0463F03F0364F07F040370447010BD5E
:100FF000B1F5803F12DA0321FFF7C0FF28B32313B6
:1010000063F01F030370C4F3851304F03F0463F01F
:101010007F0364F07F044370847010BD0421FFF7E8
:10102000ADFF90B1A31463F00F030370C4F3053355
:1010300063F07F034370C4F3851304F03F0463F04F
:101040007F0364F07F048370C47010BD70B5037BB0
:101050000E46D9070446154603D5237B9A0705D4C7
:1010600070BD1146FFF7C4FE38B9F6E7636825681E
:101070005A1CAA420ED2013DED1A6368A0682A46A6
:10108000C018314619F080FD6368ED18A3686560EB
:1010900000225A5570BD38B5054608460C4619F071
:1010A000C0FD214602462846BDE83840FFF7CEBFC6
:1010B000F8B5037BDB070446164601D50020F8BDD2
:1010C0004768B94234BF0D463D467AB11146FFF735
:1010D0008FFE0028F2D0A168A8197A1C0818521BAC
:1010E000491919F051FD63689E196660A06840199E
:1010F000F8BD10B514460122FFF7DAFF00B1047005
:1011000010BD037B13F001020AD14368994296BFD8
:10111000C1EB030142604160826843680021D15401
:10112000704770B5037B1546DA070446C3F3000029
:1011300013D46268914210D26E189642A36802D30B
:101140006160585470BD0132521A5818521B9919D7
:1011500019F01AFD63685D1B656070BD2DE9F341F0
:10116000037B0F46D9070446904621D4384619F030
:1011700058FD01462046FFF73BFEC8B1636825686D
:10118000A068CDF80480ED1AC01829463A464346B7
:101190001DF09EFA011E08DBA94203D263685E18A7
:1011A000666005E020460131E5E720466900E2E798
:1011B000BDE8FC810EB403B503AA52F8041B0192EA
:1011C000FFF7CCFFBDE80C4003B07047037803F095
:1011D0008002D2B29AB103F07F03402202E023EAF8
:1011E000020352101A42FAD103E002F03F0242EA2F
:1011F000831310F8012F02F0C0018029F5D01846A2
:101200007047431C18460133027802F0C002802A5E
:10121000F8D07047002307E011F8012C02F0C0025B
:10122000802A18BF013301398142F5D8184670472A
:1012300041180346002006E0127802F0C002013394
:10124000802A18BF01308B421A46F5D37047000040
:101250007F2804DC034B185CC0F34000704700207B
:10126000704700BF90B004087F2804DC034B185C73
:10127000C0F3C00070470020704700BF90B0040862
:101280007F2804DC034B185CC0F38000704700200B
:10129000704700BF90B0040810B50446FFF7F0FF98
:1012A00050B9A4F16103052B06D9A4F1410005282A
:1012B0008CBF0020012010BD012010BD7F2804DC60
:1012C000034B185CC0F3001070470020704700BF4C
:1012D00090B004087F2804DC034B185CC0F3401076
:1012E00070470020704700BF90B0040810B5044656
:1012F000FFF7E4FF00B12034204610BD10B50446CE
:10130000FFF7E8FF00B1203C204610BDF0B51C09F6
:1013100094421DD201EB4401121B023914460646C9
:1013200003F00F030BE031F8025F012C84BF4F88FC
:1013300045EA074525FA03F526F8025B013C002C37
:10134000F1D100EB420030F8023C13B9013A00E061
:1013500000221046F0BD2DE9F041069F0024D21B6B
:101360003E46254609E031F8048033F804C0C44401
:1013700065440553013E2D0C0234002EF3D17F004D
:10138000C4193346CF1906E037F813104D1924F865
:1013900013502D0C013393424FEA4306F4D1A219A6
:1013A0001DB1012124F813100232101A4010BDE8BB
:1013B000F081F0B5059F0024D21B3E4625460AE089
:1013C00031F804C0654433F804C0CCEB050505537F
:1013D000013E2D140234002EF2D17F00C419334691
:1013E000CF1906E037F813106D1824F813502D1498
:1013F000013393424FEA4306F4D1A319023B8342DF
:101400001A4603D20232101A4010F0BD1188023B76
:101410000029F4D0F6E738B50446806801298CBF6E
:101420000D46022518B12368B5EB930F10D9237828
:1014300003F00203DBB25BB92168C1F39D014900EF
:101440006A00FEF74BFE2368A06065F39F032360EC
:1014500038BD994210B511D313D84B00C018D2181B
:1014600008E030F8024D32F8023DE31A002B05DBAC
:1014700007D101390029F4D1084610BD4FF0FF30E3
:1014800010BD012010BD037803F0FE036FF341038C
:10149000037003686FF39F0303600023436083605E
:1014A000704758B1037803F00203DBB233B9016827
:1014B0008068C1F39D014900FEF720BE704710B55A
:1014C000044660B101688068C1F39D014900FEF7E0
:1014D00015FE20460C21BDE81040FEF70FBE10BDE2
:1014E00038B505460C20FEF7C9FD2A78037862F36B
:1014F00000036FF341030370044628682368C0F3B8
:101500009D0060F39F0323606B686360AB680BB959
:10151000A3600AE04000FEF7B1FDA0602A68A96858
:10152000C2F39D02520019F003FB204638BD38B5C6
:1015300005460C464968FFF76EFF22782B78A868AD
:1015400062F300032B706368A1686B6062685200ED
:10155000BDE8384019F0ECBA38B504460D46032111
:10156000FFF759FF002D237804DA43F001032370BD
:10157000694203E06FF30003237029460023636090
:1015800006E06368A26822F8131001336360090C57
:101590000029F6D138BD30B50578816005F0FE052B
:1015A00045F0020505700568044662F39F0519467B
:1015B000002205604260BDE83040FFF7CDBF38B57E
:1015C00004460D46FFF75FFF20462946BDE8384038
:1015D000FFF7C2BF70B50521064614461D46FFF74A
:1015E0001AFF9DF81020337852B1002C75F10001DC
:1015F00006DA43F001033370624265EB450304E011
:101600006FF30003337022462B46002171600BE01C
:101610007168B06820F8112001317160110C41EA45
:101620000341180C0A46034652EA0301F0D170BD8B
:101630002DE9F047044601EB02080E46C2F35B01B8
:101640001D460131089FFFF7E6FE237815B143F0F0
:10165000010301E065F30003237000236360354656
:101660001FFA87FC30E00278A2F130030135092B24
:101670000FD9A2F14103192B02D8A2F1370308E0D8
:10168000A2F16103192B02D9801BBDE8F087A2F1FA
:101690005703BB42F8D2A26860689BB291460146EC
:1016A00007E0B9F800A00CFB0A3329F8023B013926
:1016B0001B0C0029F5D102EB400113B122F81030C8
:1016C00002318A1A5210626045452846CBD3DBE7C7
:1016D0004068D0F1010038BF00207047436823B153
:1016E0008368188800F0010000E0184600F001004F
:1016F000704710B50246087814780B4600F00100D8
:1017000004F00101401A08D1906851689A685B683A
:10171000FFF79FFEE30748BF404210BD884210B567
:10172000044601D0FFF703FF2378C3F30002C2F1A0
:10173000010262F30003237010BD88421FB5044606
:1017400001D0FFF7F4FE227812F0010F4FF00103F1
:101750000ED0A068ADF80E306FF300022270009337
:10176000014662680DF10E03FFF723FE60600EE094
:10177000A068ADF80E30009301460DF10E036268CB
:10178000FFF7E9FD2378606043F0010323701FBD7C
:10179000F0B54B6885B005460C4616460BB1002ADD
:1017A00004D128462146FFF7C2FE44E003DA524244
:1017B00000F043F83FE01946FFF72DFEA16862688C
:1017C000A8683346FFF7A2FD686021782B7861F3A3
:1017D0000003D90702462B702DD500233111ADF837
:1017E0000E30606808E0A76837F813701FB1012356
:1017F000ADF80E3004E00133834201D08B42F2D1C8
:1018000081420CD2A36806F00F0633F811100123B1
:1018100003FA06F6013E314218BFADF80E30BDF8AE
:101820000E3043B1A8680123009301460DF10E0369
:10183000FFF791FD686005B0F0BD4B682DE9F047FA
:1018400004460D4616460BB1002A05D1204629460E
:10185000BDE8F047FFF76BBE04DA5242BDE8F0473F
:10186000FFF796BF02F10F0703EB2711FFF7D3FD38
:101870006A68AB68A16816F00F064FEA171E08BF2A
:1018800010260EEB0207501E07F1FF3803EB400055
:10189000002301EB480C99461146C6F110060BE0F7
:1018A00030F803A04AEA090929FA06FA2CF803A03D
:1018B0004FEA09490139023B0029F1D16FF00103D8
:1018C0005A430CEB020029FA06F62CF8026003FBDF
:1018D0000E060EF100420236013A3046520019F06F
:1018E0006AF936F8183003B9013F67602A7823781F
:1018F00062F300032370BDE8F08773B51546064612
:101900000C468868926849686B68FFF7A2FD00285A
:1019100002DA23462C461D462A7823785340D807FE
:101920000DD4616830460131FFF775FD6B68B06812
:101930000093A1686268AB68FFF70DFD0BE03046CD
:101940006168FFF768FD6B68B0680093A168626822
:10195000AB68FFF72EFD70602278337862F30003E6
:1019600033707CBDF7B5164605460C46886892680C
:1019700049687368FFF76DFD002801DB002703E06D
:101980002346012734461E46327823785340DB072E
:101990000DD5616828460131FFF73DFD7368A868E1
:1019A0000093A1686268B368FFF7D5FC0BE0284696
:1019B0006168FFF730FD7368A8680093A1686268EA
:1019C000B368FFF7F6FC686022782B781FB1C2F38A
:1019D0000002C2F1010262F300032B70FEBDF8B5F4
:1019E00014460A7823780E4683EA02010546C807A2
:1019F0002DD4D10778D4726863689A4202D23346F4
:101A000026461C4628466168FFF705FD6068AA68FF
:101A1000B668A7680146002307E037F803C0F45A08
:101A20000CEA0404D452013902330029F5D102EB47
:101A30004003023B9342194604D202318A1A5210E3
:101A40006A604DE00888023B0028F3D0F5E7DA072A
:101A500002D4334626461C46716828460131FFF7FA
:101A6000DAFC7268AF68B368A6686468023E141B4B
:101A7000394601200DE036F802CF6FEA0C0C10FA5F
:101A80008CF033F802CC0CEA000C21F802CB000CED
:101A9000013A9C4612B10233A242ECD1002309E084
:101AA0003CF8134000F57F40FF30044021F813401C
:101AB000000C013393424FEA4304F1D10A1918B1E3
:101AC000012021F8130007E0931EBB421A4603D3FE
:101AD0001188023B0029F8D00232D71B7F106F60BB
:101AE0002B786FF300032B70F8BD2DE9F8431546F2
:101AF00006460C468868926849686B68FFF7A9FC3F
:101B0000002802DA23462C461D462A78237861688D
:101B10005A4012F00108304629D1FFF77CFC686872
:101B20006368D5F808C0B168A7681D1A4246034625
:101B300009E03CF8029037F8028049EA080821F8E9
:101B40000280013B0232002BF3D140003F180818FD
:101B500004E037F8132020F813200133AB424FEA9A
:101B60004302F6D18018411A4910716001E0FFF775
:101B700052FC2278337862F300033370BDE8F883B7
:101B80002DE9F041154606460C468868926849687A
:101B90006B68FFF75EFC002802DA23462C461D46E0
:101BA0002A78237861685A4012F00108304627D11C
:101BB000FFF731FC6868A7686468B168D5F808C0A9
:101BC000241A0346424607E03CF80280BD5A88EAE0
:101BD00005058D52013B0232002BF5D140003F1824
:101BE000081804E037F8132020F813200133A3422B
:101BF0004FEA4302F6D18018411A4910716001E0A2
:101C0000FFF709FC33786FF300033370BDE8F08110
:101C10002DE9F04F4B6889B004460E4615460BB1CE
:101C2000536833B92046002109B0BDE8F04FFFF7F3
:101C300093BC814205D1FFF753FCB542074608D05B
:101C400008E00027824207D1FFF74AFC0546074615
:101C500002E005463E46FFE7736869682046C918FA
:101C6000FFF7D9FB2268A068C2F39D020021520051
:101C700018F0A1FFA268B36801927268A868059382
:101C80004FEA420C0CF1020804926968019BCDF8FE
:101C90001C80023000222FE033F802A0CA44DDF895
:101CA0001490CDF80CA039F8029030F802ACDDF8B1
:101CB0000CB00AFB09BB23F802B04FEA1B4908F13C
:101CC000FF38023203E00022DDF810809146B8F1BF
:101CD000000FE1D103EB0C0AB9F1000F04D0079A11
:101CE00023F80C9002EB030A019AC2EB0A0A4FEAAE
:101CF0006A020139023302300029E4D162602A7895
:101D00003378534013F0010F237838460CBF61F34A
:101D1000000343F00103237009B0BDE8F04FFFF763
:101D2000CEBB4B6870B50646144613B11378DB077B
:101D300002D53046002102E0536823B90121BDE8F5
:101D40007040FFF709BC0846FFF7CAFB054620466E
:101D5000FFF7C6FB012104463046FFF7FDFB1DE0FF
:101D60002046FFF7BBFC20B1304631462A46FFF73C
:101D70004FFFA068626801460123FFF7C7FA606061
:101D800038B92846FFF79BFB2046BDE87040FFF7B7
:101D900096BB284629462A46FFF73AFF6368002B80
:101DA000DED1EEE72DE9F04F5F6891B004460D46B5
:101DB000164606934FB93946FFF7CEFB28463946FB
:101DC00011B0BDE8F04FFFF7C7BB51680131FFF715
:101DD00022FB7268A0680132520000214FF0000817
:101DE00018F0E9FEC4F80480716828460131FFF755
:101DF00012FB28463146FFF79AFB0698A268416815
:101E0000D0F80890D5F808B06F680491079258464A
:101E100039464A46049BFFF71CFB002805D1686041
:101E2000079D01232B80636019E102DAC4F8048066
:101E300015E10499481E09EB40020B92434639F81C
:101E4000102003E05200013392B29BB21104F9D585
:101E50000499C3F1100A4900089109EB01084A46A8
:101E60000021CDF80CA00CE0BCF800C00CFA03FA7D
:101E70004AEA0101DDF80CA022F8021B4CFA0AF133
:101E800089B242459446EFD30BEB470C791C0BEB20
:101E90004102CDF828C04FF0000C2BF817C0039278
:101EA00069605A466746C3F1100A0AE0BCF800C0F0
:101EB0000CFA03F848EA070722F8027B4CFA0AF703
:101EC000BFB2DDF80C8042459446EFD3043503954C
:101ED000049DDDF820A039F810000A9A0C90491BE7
:101EE000079D6160013905EB4101A9F10208CAF1C2
:101EF000020A0991CDF82880CDF83CA06DE032F8B7
:101F0000021CB2F800A0DDF830C0089841EA0A4A85
:101F1000BAFBFCFA111ADDF828C01BE03CF8027F7E
:101F200031F8025B07FB0AF7AF4203D2C7EB0508A3
:101F300080450BD8C019451B684221F8020CA8B295
:101F4000003018BF012000EB154004E0C0EB080092
:101F500021F8020C00209142E0D332F802198842A5
:101F600009D3411A4842508088B2003018BF01207E
:101F700000EB11401FE0081A508000201BE037F8EA
:101F8000028FA8440E9DCDF80880DDF808C0B5F892
:101F900000800CEB080521F8025B2D0CDDF8348085
:101FA0000E914145EBD351886D185580A0EB15403B
:101FB0000AF1FF3A04E0DDF83CC09444CDF804C0D7
:101FC00018B101990A9F0025E8E70998059D20F8B6
:101FD00002A909900398691E01600399049D09688C
:101FE0000D92A94205918AD80B9A0021C3F11005E0
:101FF00008E0008840FA03F7394322F8021900FA92
:1020000005F189B24A451046F3D20598421E0BEB02
:1020100042020021C3F1100508E0008840FA03F7EE
:10202000394322F8021900FA05F189B25A451046DF
:10203000F3D2221D00E01360136843B1013B079DFA
:1020400035F813100029F6D001E0039803600399D6
:102050000B6823B1013B3BF81320002AF5D0069D05
:1020600033782A785340DA0703D5237843F0010305
:10207000237011B0BDE8F08F8168426801EB420225
:1020800010B5023A002303E02488023A44EA0343ED
:102090008A421446F8D20278D00748BF5B421846FD
:1020A00010BD70B54268846804EB4202023A002316
:1020B00047F6FF7605E0B3420DD82D88023A45EA8F
:1020C0000343A2421546F6D20278D20748BF5B42CC
:1020D0000B60012070BD002070BD00008268436865
:1020E00002EB4303023B9FED0C0ADFED0C7A09E0A3
:1020F000098807EE101AB8EEC77A00EE277A023B7D
:10210000B0EE470A93421946F2D20378D90748BF86
:10211000B1EE400A704700BF000000000000804799
:1021200038B58C1E1E2C14D845680B48415C2D0117
:10213000B5FBF1F523B16C1C0323B4FBF3F400E011
:102140001C4610460AB118F06CFD03352C192018F6
:1021500038BD002038BD00BF10B104082DE9F84F8C
:102160000B9D9DF828B082460F4616461C461DB1B1
:10217000012901D9202903D900202870BDE8F88F52
:1021800043688BB94AB1561E2C4601E004F8013B66
:1021900016F8013F002BF9D100E02C4630232370C4
:1021A000002304F8013F6DE04FEA43084046FDF785
:1021B00065FF42468146DAF8081018F0B9FC284657
:1021C0002A4609EB0803A4F13A0E00E022469C1EC1
:1021D000002109E0BCF800C04CEA0141B1FBF7FC6A
:1021E00024F802C907FB1C114C45A446F2D2303139
:1021F0003929144688BF714404F8011B494605E09B
:10220000BCF800C00231BCF1000F04D199428C46E9
:10221000F6D3012100E00021BBF1000F08D0C0EB94
:10222000040CBCF1030F03D1941C82F801B02046CA
:102230000029CBD048464146FDF760FF56B13046F5
:1022400018F0EFFC301803E010F8013D04F8013BF2
:10225000B042F9D89AF80030D80702D52D2304F8F7
:10226000013B2A46631E05E012F8011C587802F86B
:10227000010C597019461046013B01328842F3D3D4
:1022800000232370601BBDE8F88F0369591C70B5EB
:10229000044632D00A2B05D1C36901250133C3613D
:1022A000056215E00D2B0AD1C36945690133C3618D
:1022B000012303620A2D0CBF02251D4608E0092BED
:1022C000036A02D1073323F0070301332362012598
:1022D0000A26636960682361A3696361A3689847FC
:1022E000A061013007D163695A1C04D00A2B02D0C7
:1022F0000D2B18BFA661013DEBD170BD30B5002399
:1023000000E00133934200EB030405D0C55CCC5CD4
:10231000A542F6D0002030BD2078D0F1010038BFB2
:10232000002030BD38B5026B0D46C16A8A420446B2
:102330000AD301F10802406B49005200FDF7CEFEBE
:10234000E36A60630833E362236B626B22F8135025
:102350000133236338BD036B426B013B32F813003A
:10236000704700002DE9F74F04460D4690460027C0
:1023700054E00A2804D0B0F10D014B424B4100E07B
:10238000012323B12046FFF780FF012746E0FEF737
:102390005FFF00B13FE02369232B10D12046FFF7F8
:1023A00074FF23695A1C39D00A2B04D0B3F10D06EF
:1023B0007342734100E00123002BEFD02EE05C2B31
:1023C0000CD0E3692B60236A04F138066B60304659
:1023D000FEF786FDB8F1000F24D12BE02046FFF771
:1023E00054FF26690A2E04D0B6F10D00464246413C
:1023F00000E001267EB9E3692B60236A38346B6004
:102400000423AB602046FEF76BFD2046FEF775FD0A
:102410002E61E860FFE22046FFF737FF2069411C8C
:10242000A7D1CEE7E369012B04D1236A012B01D0A8
:10243000062345E2636A002B02DA0722AA6019E04C
:1024400004D00622AA60013B6362ACE21FB3A36A18
:102450000BBB0522AA6020466362276AFFF77BFF59
:10246000013F874200F09F820CD920463946FFF792
