:020000040800F2
:1000000000000220793A040871C9030875C9030881
:1000100085C9030895C90308A5C9030800000000A5
:10002000000000000000000000000000B5C9030847
:10003000B7C9030800000000B9C90308BDC9030817
:10004000CD3A0408C9CA0308D5CA0308DDCA0308A3
:1000500059CA0308CD3A04085DCA030863CA0308F5
:1000600069CA03086FCA030875CA0308CD3A0408B1
:10007000CD3A0408CD3A040845F4030851F40308C6
:10008000CD3A0408CD3A0408CD3A0408CD3A040824
:10009000CD3A0408CD3A0408CD3A04087BCA0308D7
:1000A000F1CA0308F7CA030809CB0308CD3A0408CC
:1000B0000FCB030815CB030821CB0308CD3A040866
:1000C000CD3A0408CD3A0408CD3A0408CD3A0408E4
:1000D000CD3A04086BCB030871CB030877CB030838
:1000E0009FCA0308CFCA0308E1C903084DCB030820
:1000F00053CB030865CB0308CD3A0408CD3A040876
:10010000CD3A0408CD3A040829CB0308CD3A0408B7
:100110007DCB0308CD3A040841CB030847CB030845
:10012000CD3A0408CD3A04082DF40308CD3A04086A
:10013000CD3A0408CD3A0408CD3A0408CD3A040873
:10014000CD3A0408CD3A0408CD3A0408D5C90308CD
:1001500039F40308CD3A0408CD3A040883CB0308E8
:10016000CD3A0408CD3A0408CD3A0408CD3A040843
:10017000CD3A0408CD3A0408CD3A04080000000046
:10018000CD3A0408CD3A040810B5002302E0CC5C57
:10019000C45401339342FAD110BD83690239023B42
:1001A000994204D28278C36A02FB01307047002072
:1001B0007047002310B5044618464208E15C42EA45
:1001C000C012013351FA82F20B2BD0B2F5D110BD1F
:1001D000F8B503690C4601F10906002B38D04369D4
:1001E00000212E255A5C0131202A18D0052A08BF8B
:1001F000E522A2F14107092908BF06F8015B192F82
:100200000BD81F7B082994BF4FF0080C4FF0100C3F
:100210001CEA070F01D02032D2B206F8012B0B29BD
:10022000E0D1DA7A22729A7FD97F120442EA01621F
:10023000197F0A43597F42EA01222260597E1A7EC1
:1002400042EA0122A280DA7D9B7D43EA0223E38019
:1002500000253570A669F6B103690BB9002518E0D1
:10026000E369002BFAD0028C4FF6FF739A42F5D067
:10027000C7690AE000213BF015FE0028EED0E369D3
:10028000013B9D42EAD27055013537F81500002830
:10029000F0D100237355F8BD08B580B1036873B180
:1002A0001A7862B1D9888288914208D1587843F08F
:1002B00033F810F0010F0CBF0020032008BD092007
:1002C00008BDCA7E8B7E032843EA022305D1487D00
:1002D0000A7D42EA002243EA024318467047F8B515
:1002E0000446007900B3256B607804F13407394681
:1002F0002A46012343F050F8A8B9636A2071EA1A2C
:10030000E3699A4201D30020F8BDE67808E0E3698A
:100310006078ED1839462A46012343F03DF8013E46
:10032000012EF4D8EFE70120F8BDF8B50446FFF739
:10033000D6FF0546002852D12378032B47D1667992
:10034000012E44D104F1340729464FF40072384697
:100350003CF021FA5523412284F83232AA2384F852
:10036000333284F83720522384F81A22226984F821
:10037000343084F83530612384F8363084F81B3209
:10038000C2F3072384F81C2284F81D32130C120ECA
:1003900084F81F22E26884F81E32C2F3072384F82F
:1003A000202284F82132130C120E84F82322226AB0
:1003B00084F822327221013284F8181284F819125A
:1003C000226360783946334642F0E6FF65710021CA
:1003D00060780A4643F014F8051C18BF012528462A
:1003E000F8BD38B5036B994205460C4612D0FFF7AD
:1003F00076FF80B922460123687805F1340142F086
:100400009BFF002818BF4FF0FF340CBF00200120D5
:100410002C6338BD002038BD002310B503714FF0A8
:10042000FF3303630446FFF7DCFF80BB94F83232EE
:1004300094F8332243EA0222174B12B29A4228D18F
:1004400094F86C2094F86D30120442EA036294F838
:100450006A301A4394F86B3042EA03220F4B22F0C1
:100460007F429A4216D094F8880094F889200004BC
:1004700040EA026094F88620104394F8872040EA0E
:10048000022020F07F40C01A18BF012010BD0320B9
:1004900010BD022010BD00BF55AAFFFF4641540009
:1004A0002DE9FF410023036007460846154643F047
:1004B0001DF8061EC0F27881BE4B53F82640002C72
:1004C00000F074813C6023787BB1607842F024FFB7
:1004D000C1070AD4002D00F06B8100F00400C0B207
:1004E000002814BF0A2000207EE100232370B24BB5
:1004F00013F81600607042F0F7FEC20700F1668143
:100500002DB100F00400C0B2002840F0618100214C
:100510002046FFF781FF012808D0002840F06081C5
:10052000A54B03EB46035D78002D35D0002304EB8B
:10053000830292F8F61102F5F97251B1917AD07AEC
:10054000090441EA0061107A527A014341EA022229
:1005500000E00A464DF803200433102BE7D1964BF8
:1005600003EB46067678374606B1771E5DF82750CE
:10057000002D00F0318120462946FFF74DFF2EB9AE
:1005800008B909E002200137032FEFD9032800F052
:10059000218108B10D2027E194F8402094F83F30E4
:1005A00043EA0223B3F5007FF4D194F84B1094F89A
:1005B0004A3053EA01210DD194F85A1094F85B3077
:1005C000090441EA036194F85830194394F859300A
:1005D00041EA032194F84460E161731E012BE67047
:1005E000D8D894F84120A270002AD3D0531E1342C9
:1005F000D0D194F8460094F8453043EA002398B2ED
:100600001B072081C6D194F8487094F8473053EA0C
:1006100007230DD194F8563094F857701B0443EA21
:10062000076394F854703B4394F8557043EA0723EA
:1006300094F8438094F8427057EA0828AAD006FB41
:1006400001FC08EB10176744BB42A3D3DB1BB3FBD1
:10065000F2F3002B9ED040F6F572934206D94FF686
:10066000F576B3428CBF0326022600E00126023352
:1006700005EB08027F19032EA36125626262E7621F
:1006800012D1002886D194F8622094F863001204F5
:1006900042EA006294F86000024394F8610042EA82
:1006A0000022A2629B000EE000283FF473AF624478
:1006B000022EA26201D15B0005E003225A4303F03F
:1006C000010303EB520303F2FF13B1EB532FFFF4CB
:1006D00061AF4FF0FF332361E3608023032E63712A
:1006E00058D194F8652094F8643043EA0223012B32
:1006F00050D12046691CFFF774FE00284AD194F8B7
:10070000323294F83322607143EA02222B4B12B248
:100710009A423FD194F8362094F83730120442EAD6
:10072000036294F834301A4394F8353042EA0322D5
:10073000234B9A422ED194F81A2294F81B321204B9
:1007400042EA036294F818321A4394F8193242EAE2
:1007500003221C4B9A421DD194F81E3294F81F229A
:100760001B0443EA026394F81C22134394F81D22ED
:1007700043EA0223236194F8223294F823221B04D3
:1007800043EA026394F82022134394F8212243EAB7
:100790000223E3600C4A2670138801339BB20020C9
:1007A0001380E38060611FE00B201DE00C201BE044
:1007B000284619E060020020E397050855AAFFFFCC
:1007C00052526141727241615C02002003200BE0D1
:1007D0000A2009E0012007E0002E3FF4D3AED9E65D
:1007E00003287FF4D7AEF5E704B0BDE8F08100BF81
:1007F0000129F8B504460D465ED9836999425BD25A
:100800000378022B2AD0032B3AD0012B54D101EBD1
:100810005106416A01EB5621FFF7E3FD10B14FF09D
:10082000FF30F8BDF305616A04EBD353013620466F
:1008300001EB562193F83470FFF7D3FD0028EED179
:10084000F60504EBD654EB0794F8340047EA002091
:1008500001D50009F8BD0005000DF8BD416A01EBA6
:100860001521FFF7BEFD0028D9D12D06ED0D631926
:10087000641993F8343094F8350043EA0020F8BD49
:10088000416A01EBD511FFF7ACFD0028C7D16D0619
:10089000ED0D6319641993F8362093F8370034335B
:1008A00000065B7840EA024040EA032094F83430C6
:1008B000184320F07040F8BD0120F8BDF8B58468F9
:1008C0000546012C0E46E98001D10220F8BD0368DF
:1008D0009A699442F9D254B91A78032A01D19A6AD2
:1008E00022B91A899642F0D2986A15E014469F7888
:1008F0003F010BE0FFF77CFF421C04461BD00128A0
:10090000E3D92B689B699842DFD2F61BBE42286868
:100910002146EFD2FFF741FCEC600028D5D02B68D0
:1009200000EB161006F00F0603EB46133433286174
:100930006B610020F8BD0120F8BD0129F8B504461F
:100940000D46164670D9836999426DD20378022B01
:100950003AD0032B49D0012B66D101EB5107416AF4
:1009600001EB5721FFF73DFD00285ED1FA05D20DBE
:10097000013715F00105F3B207D0A11891F8341032
:1009800001F00F0141EA0313DBB2A218616A82F899
:10099000343001232371204601EB5721FFF721FD5D
:1009A000002842D1FF05FF0D15B1C6F3071607E079
:1009B000E319C6F3032693F8343023F00F031E43E4
:1009C000E71987F834602CE0416A01EB1521FFF745
:1009D00008FD50BB2D06ED0D63191D4683F83460EC
:1009E000C6F3072683F835601BE0416A01EBD51199
:1009F000FFF7F7FCC8B96D06ED0D63191D4693F8B6
:100A00003720120602F070421643C6F3072283F81D
:100A1000346083F83520320C360E83F8362083F8A4
:100A2000376001232371F8BD0220F8BDF8B50446F4
:100A30000F4631B9C6689EB183699E4228BF012620
:100A40000FE0FFF7D5FE012800D83FE0421C02D19D
:100A50004FF0FF30F8BDA369984238D33E4600E01E
:100A600001263546A36901359D4204D3012E01D8E4
:100A70000020F8BD022520462946FFF7B9FE30B117
:100A8000431CE5D0012821D0B542EBD1F0E7204648
:100A900029466FF07042FFF750FFA8B927B92369C4
:100AA000E560591C08D10DE0204639462A46FFF77B
:100AB00044FF0028F3D007E0013B2361637943F052
:100AC000010363712846F8BD0128C1D00120F8BD9B
:100AD0002DE9F843C6880136B3B204460F4613B970
:100AE0000420BDE8F8830369002BF9D016F00F0845
:100AF0005BD1C16801330361006819B903899E4263
:100B0000EED252E08278013A12EA16124DD1FFF786
:100B10006FFE0128054602D80220BDE8F8830130A7
:100B200002D10120BDE8F883206883699D4236D355
:100B3000002FD5D0E168FFF779FF054600283DD0AA
:100B40000128E9D0411CECD02068FFF7C8FB07461C
:100B50000028E6D1206839464FF4007234303BF06B
:100B60001AFED4F8009029464846FFF716FBC9F84C
:100B700030004FF001090BE083F804902068FFF784
:100B8000AEFB0028CDD123681A6B01321A630137FE
:100B900023689A789742EFD31A6BD71B1F63E560DF
:100BA00020682946FFF7F9FA20612368E68003EB05
:100BB0004813343363610020BDE8F8830720BDE8A3
:100BC000F88300002DE9F84FFF27054688463C468C
:100BD0000426DFF8F8904FF6FF7A68E02868FFF700
:100BE00000FC0646002866D16B691A78002A68D096
:100BF000D97AE52A01F03F0152D021F02000B0F16E
:100C0000080CDCF1000050EB0C00404548D10F29E6
:100C10003CD102F04001C9B229B1E9885F7B298447
:100C200002F0BF0401E0A2423AD15A7BBA4237D166
:100C30001A78EE6902F03F020D21013A4A434FF063
:100C4000010E002111F809C003EB0C0090F801B06F
:100C500013F80C0040EA0B20BEF1000F06D0FE2A6C
:100C60001ED826F812008646013201E0504517D101
:100C700001310D29E6D11B7803F04003DBB2EBB163
:100C8000FE2A0DD8002326F8123017E024B91846A2
:100C9000FFF78FFA874216D04FF6FF732B8412E0CE
:100CA000FF2428460021FFF713FF064618B92969DB
:100CB000002993D13EB100232B6104E0013CE4B252
:100CC000EFE70426F7E73046BDE8F88FE64C050865
:100CD00070B50E4600210446FFF7F0FDA8B90546A1
:100CE00020682169FFF77DFB78B963691B78E52BE4
:100CF00000D01BB90135B54201D170BD0546204673
:100D00000121FFF7E5FE0028EAD0042808BF0720EC
:100D100070BD2DE9F041018CC6884FF6FF739942F2
:100D200008BF31460546FFF7C9FD0446F8B9E52777
:100D30004FF0010828682969FFF753FB044698B96A
:100D40002022686921463BF026FD6B691F702B68E5
:100D500083F80480EB88B34209D221462846FFF786
:100D6000B7FE04460028E5D0042C08BF0224204624
:100D7000BDE8F081012970B504460D4625D9836987
:100D8000994222D21BE020462946FFF731FD064654
:100D900008B9002070BD012817D0411C13D020468F
:100DA00029460022FFF7C9FD80B923695A1C05D0E6
:100DB00001332361637943F0010363713546A3690D
:100DC0009D42E0D3E5E7012070BD022070BD000028
:100DD0002DE9F74F4FF6FF7A4FF0FF090446A0F8D0
:100DE00020A04E4620682169FFF7FBFA80460028C4
:100DF0007BD165692F78002F71D0E52FEA7A63D017
:100E000002F03F0302F00802D2B212B10F2B02D05F
:100E10005AE00F2B49D1E269002A58D007F040036D
:100E2000DBB233B1E38895F80D90238407F0BF0758
:100E300001E0B7424AD16B7B4B4547D12E7826F073
:100E40004006013E0D235E434FF001084FF0000BBA
:100E5000274B1BF803106818695C407841EA0020B2
:100E6000B8F1000F0ED001923BF03AF8FE2E80460A
:100E7000019A2BD832F816003BF032F80136019A6D
:100E8000804500E0504521D10BF1010BBBF10D0F66
:100E9000DED12B7803F04003DBB21BB3B8F1000FB7
:100EA00020D032F81630EBB110E026B92846FFF713
:100EB00080F9814519D0A169CB7AD80704D4284696
:100EC0000B223BF08BFC80B1A4F820A0FF2620462B
:100ED0000021FFF7FDFD8046002883D005E04FF09C
:100EE000040802E07E1EF6B2F1E74046BDE8FE8F40
:100EF000E64C05082DE9F0478669C76986B00DF113
:100F00000C080C22044631464046FFF73DF99DF897
:100F1000172002F02003002B40F0E680D20763D5B3
:100F2000F3724FF00109E3610B2230464146FFF7AF
:100F30002BF9B9F1050F10D84B4614E0102102F03F
:100F4000010505EB43035208DD0344BF83F48833F6
:100F500083F021030139F2D101E0B81E4B4630F88D
:100F6000022F002AEAD1072203F00F0000F130011E
:100F7000392988BF00F1370101A81154013A1B0932
:100F8000F2D106A881187E2001F8140C00E001338C
:100F9000934202D0F15C2029F9D1072A05D806A88E
:100FA0008118013211F8141C00E02021F1540133A2
:100FB000072BF2D920460021FFF780FC05460028C8
:100FC00040F094802046FFF703FF0546002840F0DC
:100FD0008D8009F10109B9F1640FA5D107258FE0D2
:100FE0009DF81730F372E7619DF8173003F00203A4
:100FF000DBB21BB901260AE0013600E0002637F813
:101000001630002BF8D119360D23B6FBF3F6204627
:101010003146FFF75DFE0546002871D1013E68D0DC
:10102000E1882046891BFFF749FC0546002867D167
:10103000A069DFF8D480FFF7BCF84FF6FF7A0746C7
:10104000D14620682169FFF7CCF90546002857D121
:101050006369E0695F730F22DA72F2B20D21013A1F
:101060004A431D739D76DD762946554518BF30F8F5
:10107000125011F808E018BF013203F80E50013188
:101080009E444FEA152C002D08BF55460D298EF8B9
:1010900001C0EAD14D4503D030F81220F1B212B9A7
:1010A00046F04001C9B21970236801221A71204626
:1010B0000021FFF70DFD054610BB013EC1D118E030
:1010C0002946202260693BF066FB0B226069A1691A
:1010D000FFF75AF8A2696369D27A02F018021A730C
:1010E000236801221A710BE0062509E0042D07D1BF
:1010F00076E720682169FFF774F905460028DFD0FC
:10110000284606B0BDE8F087E64C05082DE9F74F04
:101110000B782F2B0546894601D05C2B03D109F1B2
:101120000109002301E003685B69AB6099F80030B6
:101130001F2B06D828460021FFF7C0FB00236B6158
:1011400041E14F4609F101093B782F2BF9D05C2B87
:10115000F7D0D5F81CA00023F85C5C1C1F281CD914
:101160002F281AD05C2818D0B4F5807F00F0248195
:1011700001213AF097FE002800F01E817F2806D852
:10118000924A12F8013F13B18342FAD114E10AEBFB
:10119000440323F8020C2346DEE707EB04091F286B
:1011A00094BF04240024012B1E4600D10AE0022B28
:1011B00004D1BAF802202E2A01D103E01E460AEB20
:1011C00043031BE0BAF800202E2AF8D100222AF8A7
:1011D0001320A9699A422CBF20202E208854013266
:1011E0000B2AF6D1AB6944F020049CE033F8022DC1
:1011F000202A02D02E2A40F0C680013E002EF5D1D2
:10120000DAE008F101083AF81820202AF9D02E2A4D
:10121000F7D0B8F1000F01D044F003043B4606E0DC
:10122000013E04D100224FF0080B174604E033F8CA
:10123000022D2E2AF4D1F5E73AF8180008F101083A
:1012400000284CD0202804D02E2805D1B04500F02D
:10125000B58044F00304EFE75A4502D2B04514D1FB
:10126000ACE0BBF10B0F04D144F003044FF00B0BC7
:1012700035E0B04502D044F0030430D8BF00FFB2DF
:10128000B0464FF00B0B0822D6E77F280CD900217F
:1012900001923AF007FE019A18B14D4B181810F858
:1012A000800C44F0020430B14A4B13F8011F0029AE
:1012B00075D08142F9D144F003045F200BE047F080
:1012C000020708E0A0F1610189B2192903D820388A
:1012D00047F0010780B2A96988540132ACE7AB69D5
:1012E0001A78E52A01D105221A70BBF1080F01D145
:1012F000BF00FFB207F00C030C2B03D007F0030272
:10130000032A01D144F0020404F00202D2B24AB925
:1013100007F00307012F08BF44F01004042B08BF97
:1013200044F00804AB69DC723FE02846FFF750FD4B
:10133000AB69DB7AA0B1042845D103F02002D2B218
:1013400003F004003AB10023AB606B6100283FF466
:10135000F8AE002037E0002814BF0420052032E05A
:1013600003F00403DBB2002BF3D16969CB7A03F0FD
:101370001003DBB22BB12B681878FEF7A2FFA86030
:10138000DFE605201FE04FF000082AF81680A86964
:1013900020210B220AEB46073BF0FDF933E7A0F1D1
:1013A000410189B219298AD98CE728460021FFF723
:1013B00085FA0028B9D0BBE7062004E0BBF10B0F8B
:1013C0007FF45CAF50E7BDE8FE8F00BF114C05080D
:1013D000664C05081A4C05081FB5019004A8009139
:1013E00040F8041D144642F081F8031E15DB0D4839
:1013F00050F82310024609B100200870019808B186
:101400000021017042F8230050B1012C07D101A83E
:1014100069460022FFF744F802E00B2000E00020BC
:1014200004B010BD600200202DE9F0478EB01646D2
:1014300001910546002800F099800023036001A96E
:1014400005A802F01E02FFF72BF88046002840F0A6
:10145000968002AB0B934C4B01990C9305A8FFF7B8
:1014600055FE0A9C18B9002C0CBF0620002016F06F
:101470001C0F06F01F0748D048B1042802D105A868
:10148000FFF738FD47F008070A9C48B176E0E37A99
:1014900013F0110F71D106F00406F6B2002E68D1D8
:1014A00007F00803DBB2002B3DD041F0DDFFC0F3B5
:1014B00007230026A073E373DDF81490E672030C93
:1014C000000E237426776677A677E677607499F81E
:1014D00000002146FEF7F5FE0123A676E676267586
:1014E000667589F804300646E8B148463146D9F8B1
:1014F00030A0FFF73FFC002840D10598013EC660B0
:101500005146FEF76EFF70B138E0002836D1E37A1D
:1015100003F01002D2B2002A2DD106F00206F6B274
:101520000EB1D90729D407F00803DBB20BB147F09D
:101530002007059E336BAF710027EB612C62EF71C2
:1015400030782146FEF7BDFE2861A37FE27F1B04B1
:1015500043EA0263227F1343627FAF6043EA0223C0
:10156000EB60F388AF612E60AB8008E04FF00908B4
:1015700005E0082002E0042000E007208046404605
:101580000EB0BDE8F08700BF5C0000202DE9F74FEA
:1015900099460023C9F80030044688461746FEF7EE
:1015A0007BFE054600287DD1E3790BB11D4679E02D
:1015B000A379DA0775D5E068A368C61AB74238BFC1
:1015C0003E466BE0A268D30544D120688378013B96
:1015D00003EA522313F0FF0B0CD10AB9206902E091
:1015E0006169FFF705F9012800D80BE0431C00D121
:1015F0003DE060612368616901931846FEF7CDFD07
:10160000019B08B9022533E0770A00EB0B0A1FD0D3
:101610009A78587807EB0B01914288BFCBEB020711
:10162000414652463B4641F087FE00B11FE021682B
:101630000B795BB1086BCAEB0000B84206D208EB2D
:10164000402034314FF40072FEF79EFD7F021BE014
:10165000C4F818A0A7682068A169FF05FF0DC7F5A9
:101660000077BE4238BF3746FEF7BBFE10B10125FA
:10167000E57117E0A368DA05236803EBD251404611
:1016800034313A46FEF780FDA368DB19A360D9F830
:101690000030DB19B844C9F80030F61B002E91D198
:1016A00000E007252846BDE8FE8F2DE9F74F994653
:1016B0000023C9F80030044688461646FEF7ECFDC4
:1016C0000546002840F0AE80E3790BB11D46A9E045
:1016D000A37903F00203DBB2002B00F0A280A36821
:1016E000DE4228BF002692E0A368DA0568D12068B0
:1016F00090F802B00BF1FF3B0BEA532B1BF0FF0BF2
:1017000017D113B9216951B900E06169FFF78EF96A
:10171000014620B9A368E26893427CD87CE00129A5
:1017200000D117E0481C00D157E02369616103B97B
:1017300021612068A369026B9A4203D1FEF7CFFDB5
:1017400000B14AE02368616901931846FEF725FD60
:10175000019B08B9022541E0770A00EB0B0A21D072
:101760009A78587807EB0B01914288BFCBEB0207C0
:10177000414652463B4641F00FFE834600B12CE005
:101780002068016BCAEB0101B94209D2343008EB81
:1017900041214FF40072FEF7F7FC236883F804B090
:1017A0007F022AE0A168E268914207D31846FEF75B
:1017B00096FD00B111E02368C3F830A0C4F818A06A
:1017C000A7682068A169FF05FF0DC7F50077BE4235
:1017D00038BF3746FEF705FE10B10125E57121E05F
:1017E000A368DA05236803EBD25034303A46414609
:1017F000FEF7CAFC236801221A71A368DB19A360F3
:10180000D9F80030DB19B844C9F80030F61B002EB7
:101810007FF46AAF7EE7E360A37943F02003A3710E
:1018200000E007252846BDE8FE8F70B50546FEF7A7
:1018300033FD064600283BD1AB7903F02003DBB231
:10184000002B35D02868E969FEF7CBFD0646002855
:101850002ED12C6AE37A43F02003E372EB682377FE
:10186000AB891B0A6377EB89A377EB7BE3772B6963
:10187000C3F30722A3761B0C23751B0AE27663755C
:1018800041F0F2FDC0F30723A075E375030C000ED1
:1018900023766076A674E674AB7923F02003AB71EF
:1018A0002B6801221A712868BDE87040FEF73DBD23
:1018B000304670BD10B50446FFF7B7FF20B920468B
:1018C000FEF7EAFC00B9206010BD000007B502ABCE
:1018D00043F8040D184641F009FE002803DB034BD2
:1018E0001870002000E00B200EBD00BF381E002045
:1018F00030B58FB001A90190002205A8FEF7D0FDF8
:101900000446F8B902AB0B93104B01990C9305A850
:10191000FFF7FCFB044680B90A9919B9079A059BA1
:101920005A610FE0CB7A03F01003DBB24BB1059D97
:101930002878FEF7C6FC686104E0042808BF052487
:1019400000E0052420460FB030BD00BF5C00002041
:101950002DE9F04798B000220FAE01908846027042
:1019600001A93046FEF79CFD0546002840F08A801C
:1019700004AB1593454B16930F9B5B69444611933B
:101980000DF1250959E001213046FEF797FF014688
:10199000002858D13046FFF715F90746002854D1E2
:1019A0000F9B14991878FEF78CFC3946119030463D
:1019B000FEF784FF00284AD130460021FFF702F9E4
:1019C0000746D0B90F9B14991878FEF77AFC824528
:1019D0000CD1019B0E94304607A90D93FEF7F8FB3E
:1019E000019BCDF80C901A7862B90CE0394630466C
:1019F000FFF76EF807460028DED0042F14BF3D46DF
:101A0000022527E003930399002300E00133CA5C19
:101A1000002AFBD1D91C8C421A4606D219E0039940
:101A2000E018CF5C0199801A0F5413F1FF33F6D2FE
:101A3000D243A418019B2F221A55DDF844A0BAF115
:101A4000000FA0D106E0054604E0054602E0054689
:101A500000E01125019B03931DB1039B00221A7026
:101A600010E00B4B03A9187841F074FD4445F4D005
:101A7000019B1A5D039B013403F8012B444503933A
:101A8000F6D3EAE7284618B0BDE8F0875C000020EE
:101A9000381E0020F8B504460F46FEF7FDFB06464B
:101AA000002875D1E3790BB11E4671E0E568AF42BD
:101AB00001D83D4605E0A37903F00203DBB2002B19
:101AC000F7D10022A368A2600DB9002551E020687B
:101AD00087787F026BB1013B691EB1FBF7F1B3FB65
:101AE000F7F2914205D37A421340A360ED1A61697F
:101AF0000EE0216959B9FEF799FF0128014600D18E
:101B000033E0421C02D10126E67141E020616161AF
:101B10000029DAD01CE0A379206803F00203DBB2CD
:101B200023B1FEF783FF014618B914E0FEF760FE0B
:101B300001464B1C00D1E6E7012916D923689B69B1
:101B4000994200D311E0A3686161DB19A360ED1B2A
:101B5000BD42E0D800E03D46A368EA052B44A360FF
:101B6000B3D02068FEF719FB08B90226CCE700EBDA
:101B70005525A368DA0503D0A269954218BFA5616F
:101B8000E268934204D9E360A37943F02003A37190
:101B90003046F8BD10B586B00446019128B302A8BE
:101BA00001A90022FEF77CFCE0B9029B01992360A9
:101BB00003ABA361134B2046E361FFF7A7FA60B9BB
:101BC0006169A1B1CB7A03F01003DBB24BB1029B88
:101BD0001878FEF776FBA06009E0042801D070B108
:101BE00000E005200023236009E0092007E0029BB4
:101BF000DB882046A3800021FEF760FEEDE706B0FB
:101C000010BD00BF5C00002010B50446FEF744FB89
:101C100000B9206010BD00007FB505460E46FEF7F6
:101C20003BFB044600BB26B928462146FEF746FE8C
:101C300019E001ABAB610E4B2846EB612146FEF784
:101C4000C1FF042801D12C6100E060B9284631466B
:101C5000FEF7BEFA00212846FEF73AFF042802D11B
:101C600000232B6100E00446204604B070BD00BF95
:101C70005C00002030B58FB00D46019001A905A889
:101C80000022FEF70DFC044690B902AB0B930A4B01
:101C900001990C9305A8FFF739FA044640B90A9B4D
:101CA0002BB12DB105A82946FEF792FA00E00624D3
:101CB00020460FB030BD00BF5C0000202DE9F34787
:101CC00002AB144643F8040D88461046194600221C
:101CD000FEF7E6FB2468054600285DD1A769236965
:101CE000BA1E934202D8C8F8003055E094F800902C
:101CF000B9F1010F10D10227064639462046FEF7FA
:101D000077FD411C3CD001283CD000B90136A369C5
:101D100001379F42F1D338E0616A03460246064626
:101D200052B9204601F1010AFEF75BFB60BB04F1EA
:101D3000340351464FF40072B9F1020F09D193F800
:101D400001C0187850EA0C2008BF01360233023A6D
:101D500013E0987893F803C0000440EA0C6093F80D
:101D600000C040EA0C0093F801C040EA0C2020F0CB
:101D7000704000B901360433043A013FD0D104E089
:101D8000012502E0022500E005466379266143F063
:101D900001036371C8F800602846BDE8FC870000B5
:101DA00010B598B001A90190012206A8FEF778FBB2
:101DB0000146002858D103AB0C932D4B01990D938C
:101DC00006A8FFF7A3F9014600284DD10C9BDB7A4A
:101DD00003F02003DBB2002B34D130E0CC7AE307F0
:101DE0003AD431E0069B1878FEF76BFA04460028D7
:101DF00030D00FA806A92422FEF7C6F902210FA8A9
:101E00001194FEF75BFD014600282DD10FA8FEF7C7
:101E1000D9FE014600B3069A526994421CD00428A8
:101E20001CD021E024B90698FEF77FFA01461BE09A
:101E300021460698FEF79EFF0146A8B9F3E70B99E5
:101E40000029CBD106210FE004F01004E4B2002CED
:101E5000C8D103E0022107E0072105E006A8FEF74C
:101E600058FF01460028DDD0084618B010BD00BF5D
:101E70005C0000202DE9F04F91B0039041F0F4FA9E
:101E800003A98046012207A8FEF70AFB074600289F
:101E900040F0D28004AB0D93694B03990E9307A8D1
:101EA000FFF734F90746002800F0B680042840F018
:101EB000C3800D9BD97A01F02001C9B2002940F0FE
:101EC000AD80A3E0012C00F0AB800127621C7BD029
:101ED000AAE0DDF81CB021465846FEF75EF90BF18A
:101EE000340539464FF40072064628463AF053FC52
:101EF00020210B2228463AF04EFC10228BF83F207E
:101F0000C8F307228DF809208BF84B20C4F3072271
:101F1000E3B28DF80A208BF84F20220C2E275FFAAF
:101F200088FAC8F3074900938BF84E304FEA1868D7
:101F3000D3B2120A8BF848308DF80B208BF8492069
:101F4000294620228BF834708BF84AA08BF84C90ED
:101F50008BF84D800BF154000193FEF715F9079AA9
:101F60008BF855701178099B032903D1916A8B4234
:101F700008BF00238BF86E30C3F307211B0C8BF8CE
:101F800068301B0A8BF86F108BF8693092F802B03A
:101F900012E00798012206630271FEF7A0F90136EC
:101FA000074688B9284639464FF400723AF0F3FBE9
:101FB0000BF1FF335FFA83FBBBF1000FE9D107A8F8
:101FC000FEF798FF074620B107982146FEF7D2FE9C
:101FD00032E00C9B079883F816A01022DA729DF865
:101FE000092083F81890DA75009A83F819809A7698
:101FF0009DF80A20DA76019A1A759DF80B205A7519
:1020000001230371FEF791F9074615E00798FEF7E3
:102010000DFD044630B155E708270DE006270BE01B
:102020000227D1E70727CFE70798FEF758F90746B9
:1020300000283FF44EAFC7E7384611B0BDE8F08F37
:102040005C00002070B58EB001A90190012205A8A6
:10205000FEF726FA0446002840F09580019B8DF893
:1020600008001A782F2A01D101330193019B002522
:1020700000E001355A5D002AFBD100E0013D45B981
:10208000002105A80791FEF719FC044600287AD123
:1020900031E05A1912F8012C202AEFD000242646EC
:1020A000019B0121985D39F0FDFE39F019FF0021F7
:1020B000013639F0F7FE00285BD0344A12F8013FB0
:1020C000002B58D08342F9D153E00EAA1319020A0B
:1020D00003F8302C01340EAA13190134AE4203F870
:1020E000300CDDD303E002AAA354013400E0202326
:1020F0000A2CF8D9C4E705A80121FEF763FD60B9F1
:102100009DF808302BB10A9802A90B22FEF73CF883
:102110001BE00A9BE5221A7024E0042827D19DF8D1
:10212000083083B305A80121FEF7D2FD044650BB59
:10213000214620220A983AF02EFB0B220A9802A987
:10214000FEF722F80A9B0822DA7241F08DF90A9B09
:1021500098750A9BC0F30722DA750A9B020C000EE1
:102160001A765876059801230371FEF7DEF80446C7
:1021700009E0062407E0FF2802D80A2CABD9F8E7CB
:10218000092CA2D9F5E720460EB070BD214C0508F8
:102190002DE9F04F89B08A46059013200129154694
:1021A00000F22C8305A841F0A1F90028C0F2F382C7
:1021B000AC4B53F82040002C00F0EF82002323703A
:1021C000A94B13F8106003EB400090F801B03046C3
:1021D00041F08AF8C10700F1E28200F00402D2B2B5
:1021E000002A40F0DE823046BBF1000F33D004F10C
:1021F0003401012341F0A0F808B10120FEE294F877
:10220000323294F8332243EA0222984B12B29A42B5
:1022100001D00E20F2E204EB0B1393F8E62103F554
:10222000F173002AF5D093F80A80DA7AD97B4FEA65
:10223000084848EA02681A7A48EA02085A7A48EADC
:1022400002289A7B120442EA0162197B5B7B0A43F3
:1022500042EA032311E0012107AA41F0D1F8002846
:10226000CBD1079B2F2BC8D9BAF1000F0CBF4FF071
:102270003F084FF00008C8EB030307936B1E2B4287
:1022800002D1002D40F0AD82079B79484FF4FA61EE
:10229000B3FBF1F1002300E0013330F81320914249
:1022A000FAD3744A32F81350B5F5007F01D36D0AA2
:1022B00000E01DB1802D28BF802500E00125079A90
:1022C00040F6F573B2FBF5F9994540F27A8203F5D1
:1022D0007043994500F267827DE209F2FF192021DF
:1022E0004FEA592903914FF0010C0CEB08030399B5
:1022F000029301EB090302995B18C8EB0501C918A9
:102300008A4286D33046032106AA0193CDF800C045
:1023100041F076F8019BDDF800C020B9069A12B1B1
:10232000B2F5004F01D901220692069A511EC91832
:1023300052420A40D31A032F069304D1029AD218AC
:102340009C44029200E09944079B0399CCEB030262
:10235000C9EB0202521AB2FBF5F2022F049206D127
:10236000049940F6F57291427FF653AF10E0032FC7
:1023700007D1049A4FF6F5739A427FF64AAF0C23C1
:102380000CE0012F04D1B3F5803F06D3062305E00E
:10239000B3F5803FFAD2042300E03B46BBF1000FC7
:1023A0000ED004EB0B12304682F8E63104F1340112
:1023B00000220123CDF800C04CE04FF0F80B5DE0A7
:1023C000BAF1000F58D104F1340B51464FF40072AA
:1023D00058460193CDF800C03AF0DDF94FF0010EF8
:1023E00084F8F3E184F8F4E184F8F5A1019B84F822
:1023F000FBA184F8F631FE2384F8F731079B84F8BB
:10240000FCA108EB030143F6C162B1FBF2F29108B3
:10241000069284F8F9213F2284F8FA21C3F30722B7
:1024200084F8FE3184F8FF211A0C1B0E84F8013267
:10243000552341F03F0184F83232AA2384F8F81181
:1024400084F8002284F8333284F8FDA130465946DE
:102450005246734640F0A0FFDDF800C00028ACD023
:10246000CBE600BF60020020E397050855AAFFFFF6
:10247000F44C0508FC4B05084FF0F00B04F1340A4E
:1024800000214FF400725046CDF800C03AF083F9B5
:102490000B225046D549FDF777FE0023022284F82F
:1024A0003F3084F8402084F84150DDF800C084F8C3
:1024B0004530032F18BF022384F84630079B84F869
:1024C00042C00122CCF3072CB3F5803F84F84420AE
:1024D00084F843C09AB205D2120A84F8473084F8CF
:1024E00048200AE0120A84F8543084F855201A0C67
:1024F0001B0E84F8562084F85730FF2284F84E20B3
:10250000C8F307223F2384F851204FEA184284F889
:102510004C3084F8522000234FEA186284F84D3082
:1025200084F84F3084F8532084F849B084F8508000
:10253000019340F099FF032F069082B2019B35D1A1
:10254000120A84F87820020C84F87920C9F3072253
:1025500084F859204FEA194284F85A204FEA196248
:1025600084F85B20022284F8602084F86130012224
:1025700084F8623084F8633084F8653084F867301A
:10258000802384F8770084F86420000E062284F803
:102590007430292384F87A0084F8589084F86620EF
:1025A00084F8763004F17B00914919E0030C84F83B
:1025B0005D30C9F3072384F84B30802384F85B0037
:1025C000120A000E84F858308A4984F85E002923E4
:1025D00084F85C2084F84A9084F85A3004F15F0053
:1025E0001322FDF7D1FD552384F83232AA2384F853
:1025F0003332304651464246012340F0CDFE00289A
:102600007FF4FBAD032F06D13046514608F1060298
:10261000012340F0C1FE002150464FF400723AF011
:10262000BAF8032F12D0744B012F18BF6FF0FF03BD
:1026300043EA0B03FF22069384F834301B0E84F820
:10264000352084F8362084F837301CE06BF0FF0327
:10265000069384F83430FF2384F8353084F836301C
:1026600084F8373084F8383084F8393084F83A30D8
:1026700084F83B3084F83C3084F83D3084F83E30B8
:102680000F2384F83F30029B51461A4603F1010B99
:102690003046012340F080FE014600287FF4ADADB6
:1026A00050464FF400723AF076F80123069312E098
:1026B0000BF1010C304651465A460123CDF800C0BB
:1026C00040F06AFEDDF800C000287FF496AD069B5E
:1026D00001330693E346069B4B45E9D30399032F49
:1026E00018BF0D465D44304651465A4601230BF152
:1026F000010940F051FE00287FF47FAD4D45CB46E7
:10270000F1D1032F3ED14122522384F8372084F89F
:102710001A22049A84F8343084F83530612384F81E
:10272000363084F81B32531EC3F3072284F81C3260
:1027300084F81D221A0C1B0E84F81F32022384F821
:1027400020325523722184F83232AA2384F81812D9
:1027500084F8191284F81E2284F8210284F82202D7
:1027600084F8230284F83332514608F10102012330
:10277000304640F011FE3046514608F10702012371
:1027800040F00AFE002130460A4640F039FE003093
:1027900018BF012032E00B2030E00C202EE0032097
:1027A0002CE00A202AE009F182094FEA890909F19F
:1027B000FF3900234FEA5929032703934FF0200CD8
:1027C00093E5032303FB09F909F101094FEA5909CC
:1027D0009944012781E509F102094FEA49090227D5
:1027E0007BE5B5F5007FBFF462AD63E5324C0508CB
:1027F0003E4C0508524C050800FFFF0009B0BDE83B
:04280000F08F00BF96
:020000040802F0
:10000000C0F808E0C460056146618761C0F81C80E3
:10001000C0F82090C0F824A0C0F828B0C0F82CD0B8
:10002000024B1A680260186000207047A41B002071
:100030005FF808301A6812681A6070475FF8143069
:100040001A68002A1CF07081506010681860D2F89D
:1000500008E0D468156956699769D2F81C80D2F80F
:100060002090D2F824A0D2F828B0D2F82CD00120C9
:10007000704700BF10B50021044600F0D7FA28B938
:1000800024B12046BDE810400AF09ABF10BD0021FF
:1000900000F0CCBA10B50121044600F0C7FA28B927
:1000A00024B12046BDE810400AF08ABF10BD38B523
:1000B0000546FFF7DFFF044628B925B12846BDE80D
:1000C00038400AF07DBF204600212A461CF063FB21
:1000D000204638BD10B50C4600F094FB28B924B179
:1000E0002046BDE810400AF06BBF10BD00F08ABB8F
:1000F00000F04ABB3449D1F890322DE9F00F0846A0
:10010000032701F5C87501F52476AB4245D91C1FBC
:10011000D1F8788153F804CCC1F890420023013320
:100120000CEB03024FEA920902F0030218F809905F
:10013000520049FA02F202F00302022AEFD0D1F88B
:1001400084219B0002EB0C1C3CD0ACF1040C5CF84D
:10015000042F12F00F0F1AD1D1F88441A24216D306
:10016000141B4FEA14184FEA941908F003044FEADD
:10017000440AD0F88841944209D9D0F8782112F87D
:1001800009B04BFA0AF404F00304012C08D0013B37
:10019000DDD1D1F89032AB42B9D8BDE8F00F70474D
:1001A00007FA0AFA4AEA0B0B02F809B0D0F89022D3
:1001B0009146B24236BF49F8048BC0F88C41C0F872
:1001C0009092E4E72346A0E79C1B00200307F0B4CD
:1001D00019D11E4DD5F88431984214D3D5F8882111
:1001E000824210D9C01A8609D5F878210309915D99
:1001F00003F00304670041FA07F707F00307012F34
:1002000002EB060C01D0F0BC7047D5F89872BE42E4
:1002100037BFC5F8986230469CF800108009032764
:10022000640007FA04F421EA040111540133980828
:10023000D5F8782103F00304115C660041FA06F654
:1002400006F00306022EEBD0DDE700BF9C1B00206A
:10025000F8B521F00F031D1A42F6F342CFF6232220
:10026000ED0041F69C34C2F20004A2FB05156D0AB4
:10027000A3EB851E47192A460021C4F87C51AD0026
:10028000C4F88831C4F884E10646C4F87801C4F89B
:1002900080711CF080FAEA1D38460021D2081CF05B
:1002A0007AFA0023C4F89832A4F894320123A4F80F
:1002B0009632F8BD41F69C33C2F20003B3F89422A3
:1002C0000132A3F89422704741F69C33C2F2000336
:1002D000B3F89422013AA3F89422704741F69C3374
:1002E000C2F20003B3F89402003018BF0120704737
:1002F0002DE9F843244DB5F89422013205F5C87371
:10030000A5F894220022C5F88C21C5F890322C1F44
:1003100005F5B2762F464FF0030905F5247854F819
:10032000043F1A0718D1D5F88421934214D39A1A9E
:100330009009120902F003014FEA410ED7F8881123
:10034000994209D9D7F8783113F800C04CFA0EF168
:1003500001F00301012905D0FFF7CCFEB442DED144
:10036000BDE8F88309FA0EFE4EEA0C0C03F800C053
:10037000D7F890321846434536BF40F8042BC7F8EB
:100380008C11C7F89002E7E79C1B00202DE9F84389
:100390000E4641B31E4F051F00244FF0030907F519
:1003A000247855F8043F190718D1D7F884219342CF
:1003B00014D39A1A9009120902F003014FEA410E70
:1003C000D7F88811994209D9D7F8783113F800C0C5
:1003D0004CFA0EF101F00301012906D00134FFF7B8
:1003E00089FEB442DDD1BDE8F88309FA0EFE4EEA7B
:1003F0000C0C03F800C0D7F890321846434536BFBE
:1004000040F8042BC7F88C11C7F89002E6E700BF4C
:100410009C1B00202DE9F04F574CD4F87C11D4F8E8
:100420008C3183B08900002704F5C876A1464BB310
:10043000C4F88C71C4F89062002947D0002502E00E
:1004400001358D421AD2D4F87831AA0805F003009C
:100450009A5C430042FA03F303F00303032BEFD14A
:10046000D9F8903243F8045BC9F89032FFF742FEA6
:10047000D9F87C11013589008D42E4D3D4F88C3150
:10048000002BD5D111B39846DFF8EC901D464FF004
:10049000030B06E0032A61D0012A22D001358D42E8
:1004A00014D2AE08D4F8783105F00307985D7F00C8
:1004B00040FA07F202F00302022A03EB060CE9D12C
:1004C000B8F1000F3ED101358D42EAD3B4F8943231
:1004D0000022013BC4F89822A4F8943203B0BDE88E
:1004E000F08F4FEAD508D9F8803113F8082005F0CD
:1004F000070A42FA0AF1C907434423D52901D9F86A
:10050000840150F801C04018BCF1000F0FD0212128
:100510006A4609F00FFF009B23B1002001466A469E
:1005200009F0F8FED4F8803113F808204344012183
:1005300001FA0AFA22EA0A021A70D4F87831985DB0
:1005400003EB060C0BFA07F720EA07008CF8000013
:10055000D4F87C114FF0010889009FE7022202FACB
:1005600007F720EA07009855D9F87C114FF00008EA
:1005700001FA02F192E700BF9C1B00202A4BD3F83E
:100580008811D3F88421F0B4D3F87C518A1A22F070
:1005900003020021AD00026041608160C160016121
:1005A000416137D0D3F878618C460B460C4607E0A2
:1005B000022A02D10134446001310133AB421AD026
:1005C0009F0803F00302F75D520047FA02F202F0BF
:1005D0000302012AECD8012914D0022916D0476958
:1005E0008F4238BF4161012A16D101330134AB4239
:1005F00044601146E4D124014FEA0C154460856043
:10060000F0BC7047C7680137C760E8E70769013782
:100610000761E4E72C46F1E7CAD20CF1010CC0F8FF
:1006200008C00021C9E700BF9C1B00202DE9F0474E
:10063000DFF85081B8F8944200F10F0681460F466A
:100640003609002C40F09780002E00F09480B8F816
:100650009602D0F1010038BF0020C246D8F8985267
:10066000D8F87C2195422ED2DAF8781117E00134BF
:10067000A6422ED913F00C0F19D10134A64274D919
:1006800013F0300F17D10134A64271D913F0C00F07
:1006900015D10134A64272D90135954213D24B5D72
:1006A00013F0030FE3D0002413F00C0FE5D0002467
:1006B00013F0300FE7D0002413F0C00FE9D001355C
:1006C00000249542EBD3002855D11FF07DFF012077
:1006D000C4E7AD00012CC4EB050305F1010E08BF12
:1006E0004FEA9E0203F1010A08BFC8F898224FEAB8
:1006F0009A020AF003008C5C4000012606FA00F022
:1007000020430233885402209D420DD39C08D8F820
:10071000786103F00302315D520000FA02F2013306
:100720000A439D423255F1D2D8F884614FEA0A1546
:100730007419CAEB0E0204EB09000021C9EB021286
:100740001CF029F877B10F4A00237351D2F88021A9
:100750004FEADA030121D05C0AF0070A01FA0AF134
:100760000143D1542046BDE8F087AD000135B1E723
:10077000AD000235AEE700242046BDE8F087AD00AD
:100780000335A7E79C1B0020034BB3F894320BB949
:10079000FFF71CBD704700BF9C1B002010F00F022C
:1007A00010B42AD1164BD3F88411884222D3D3F83F
:1007B000884184421ED9411AD3F878418B0909092E
:1007C000E05C01F003035B0040FA03F303F0030372
:1007D000012B10460FD101300B189A0803F00303C8
:1007E000A25C5B0042FA03F303F00303022BF2D096
:1007F000000100E0104610BC70470020FBE700BF7E
:100800009C1B00202DE9F047614CB4F8943205465A
:100810008946002B64D1002800F0B080002900F048
:10082000B38010F00F0C5BD1D4F88411884257D3F9
:10083000D4F88831834253D9411A8A09D4F87831DF
:1008400009099A5C01F00306760042FA06F606F002
:100850000306012E44D1D4F87C014F1C800009F11D
:100860000F08B8424FEA181813D94FEA970A07F051
:10087000030213F80AA052004AFA02F202F003023D
:10088000022A31D02AB90CF1010C0CEB060290457A
:100890002BD8B04525D02CD3B444E0454FD876189A
:1008A00008EB0100864238BF4FF0020E02D30DE084
:1008B000D4F87831B70806F00302D95D52000EFA79
:1008C00002F201360A438642DA55F1D105EB0900FE
:1008D0000021C9EB08121BF05EFF2846BDE8F08737
:1008E00000252846BDE8F08701360137B842BCD85C
:1008F000CFE7B6EB080608EB010C1EBF6644624664
:100900004FF0030902D10EE0D4F87831910802F0DB
:1009100003005F5C400009FA00F0013227EA0000A2
:10092000B2425854F0D1D4F898324FEA9C0199421F
:10093000D7D2174B2846C3F89812BDE8F087D4F8F1
:100940008021CB0801F00701D35C43FA01F148464E
:1009500001F00101FFF76AFE04460028C0D02946D5
:1009600032011BF0D5FE0A4BB3F8943223B9284666
:10097000FFF72CFC2546B4E72546B2E70846294692
:10098000BDE8F047FFF752BEFFF720FC4D46A8E751
:100990009C1B002000B587B06846FFF7EFFD4AF2C8
:1009A0000C609DE80E00C0F604001FF0B3FD03A923
:1009B0004AF230600EC9C0F604001FF0ABFD07B06C
:1009C00000BD00BF2DE9F84FDFF860A15048DAF80C
:1009D00084111FF09FFDDAF87C01800000F0938005
:1009E0004C4FDFF84C810025564621E005F0030B03
:1009F0004FEA95094FEA4B0BDAF8783113F80930D2
:100A000043FA0BFB0BF0030B7420BBF1020F07D072
:100A10006D20BBF1030F03D02E20BBF1010F4CD092
:100A20001FF090FDDAF87C0101358000A8426AD9F8
:100A3000AB06DBD1A8429EBF05F0030B4FEA950938
:100A40004FEA4B0B2DD9DAF878214FEA950905F0DA
:100A5000030B12F809304FEA4B0B43FA0BF39907DB
:100A60001FD12C4604E0515C41FA03F39B0706D1E9
:100A7000013404F00303A1085B008442F3D3611B3B
:100A80007F290ED9890924481FF044FDDAF87C310A
:100A900024F03F05B5EB830F35D24FEA95094FF0AF
:100AA000000BDAF884311D4803EB051121F07F417A
:100AB00021F470011FF02EFD9EE72A01D6F8843143
:100AC0009B585420BB42ABD04C204345A8D040F2A9
:100AD0000C62C0F6050244209342A1D0104A462081
:100AE00093429DD00F4A4220934299D00E4898429B
:100AF00014BF68204D201FF025FDDAF87C01013578
:100B00008000A84294D80A20BDE8F84F1FF01ABD13
:100B100064A604087C27050880A604089CA604088F
:100B20003010050808110508241605089C1B002034
:100B30004C140508074BDB6808E05A68904204D360
:100B4000821A043253F8220070471B68002BF4D13C
:100B5000184670479C1B002070B5114CE2689368E2
:100B6000D2689A4206460FD3981CC000FFF782FA5B
:100B7000E268D56851680260926852008260691824
:100B800000224160C260E060054BDB68DA685868AB
:100B9000111D0138013243F82160DA60801870BD00
:100BA0009C1B0020411841F2055304E010F8012B72
:100BB00003EB431353408842F8D398B2002808BF90
:100BC00001207047014A024BDA60704754A70408BD
:100BD0009C1B00202DE9F84F80460E46FFF7E2FFF0
:100BE000164B8146DC6823E0E36804F11007043308
:100BF00004EB830A3D4617E055F8040B4178027870
:100C000042EA01224A450FD18278B2420CD1033028
:100C1000414632461BF0E2FD30B96368C7EB0B0773
:100C200003EBA700BDE8F88F5545AB46E4D3246835
:100C3000002CD9D12046BDE8F88F00BF9C1B0020B6
:100C40002DE9F04106460D46FFF7C4FF8046C8B9BE
:100C500029463046FFF7A6FF0746281DFFF70AFA88
:100C600007703F0A0446477085702A4603303146B4
:100C70001BF04EFD6519204685F80380BDE8F04164
:100C8000FFF76ABFBDE8F08110B504461BF0B9FD5F
:100C900001462046BDE81040FFF7D2BF38B50446F4
:100CA00004300D46FFF7E6F92860847028680330A9
:100CB00038BDF8B58678C71C044631463846FFF77C
:100CC00089FF054668B931463846FFF76BFFA6191C
:100CD0002070000A60702046F570BDE8F840FFF70C
:100CE0003BBF2046FFF704FA2846F8BD08B5FFF7DA
:100CF00021FF4278007840EA022008BD08B5FFF7DE
:100D000019FF807808BD08B5FFF714FF033008BD50
:100D100010B50C46FFF70EFF83780330236010BD3B
:100D20002DE9F84F1D46002303600B6013602B6014
:100D3000184B074688461646DC6821E03B680133BD
:100D40003B60D8F80020E368D318C8F80030E368A7
:100D5000043304F1100904EB830A07E059F8040B8B
:100D6000D6F800B0FFF71AFD58443060D145F5D3EE
:100D70002046D5F80090FFF711FD2468484428600C
:100D800014B1054B9C42D9D12B6832689B182B605B
:100D9000BDE8F88F9C1B002054A70408F8B50C4B45
:100DA0000C4EDC680FE0E368043304F1100504EB3B
:100DB000830705E055F8041B074803311FF0AAFB21
:100DC000BD42F7D324680CB1B442ECD1F8BD00BFEA
:100DD0009C1B002054A7040820B7040838B54568B8
:100DE000036849199942044612D9037B9B0711D421
:100DF0004D0025F00705083580682946FFF76AF998
:100E000020B9237B43F00103237338BD2560A06024
:100E1000012038BD002038BD70B5037BDA070446D9
:100E20000D4601D5002070BD01214668FFF7D6FFB1
:100E30000028F7D0B54228BF3546A168681C0818BD
:100E4000721B49191BF090FC6368A0680133636052
:100E5000401970BD38B504460025002914BF084666
:100E6000012020606560FFF705F9237BA06010B9C1
:100E700043F0010303E003F0FE0365F34103237332
:100E800038BD38B504460D46FFF7E4FF656038BD50
:100E900000234360037B016003F0FE0343F0020381
:100EA00082600373704710B5037B9907044602D430
:100EB0008068FFF71DF90023A36010BD10B5102056
:100EC000FFF7D8F8044610B11021FFF7C3FF204602
:100ED00010BD10B5044650B1037B980702D4A0683A
:100EE000FFF706F92046BDE81040FFF701B910BD35
:100EF000037B002262F30003426003737047007BB0
:100F000000F001007047037BDB0754BF80680020BE
:100F10007047037BDA0754BF40680020704738B53C
:100F2000037B0D469907044611D40168806869184F
:100F3000FFF7D0F8034620B9227B42F0010222736A
:100F400038BD2268A360AD188018256038BD002028
:100F500038BD38B5037BDB0704460D4601D50020BC
:100F600038BDFFF73BFF0028F9D06368A068C018C0
:100F7000EB18636038BD38B5037BDA070446C3F36A
:100F8000000501D5002038BD0121FFF727FF00280B
:100F9000F8D0A2686368D554A06838BD10B50C4677
:100FA0000121FFF7D6FF00B1047010BD7F2910B5F5
:100FB0000C4606D80121FFF7CCFF002840D0047072
:100FC00010BDB1F5006F0ED20221FFF7C2FF00285D
:100FD00036D0A30904F03F0443F0C00344F080047A
:100FE0000370447010BDB1F5803F12D20321FFF7AA
:100FF000B0FF28B3230B43F0E0030370C4F3851361
:1010000004F03F0443F0800344F080044370847094
:1010100010BD0421FFF79DFF90B1A30C43F0F00336
:101020000370C4F3053343F080034370C4F38513A6
:1010300004F03F0443F0800344F080048370C470E4
:1010400010BD70B5037BDB0704460E46154603D57D
:10105000237B990705D470BD1146FFF7BFFE38B951
:10106000F6E7636825685A1CAA420BD2013DED1AC7
:101070006368A0682A46C01831461BF075FB636898
:101080005D19656070BD38B5054608460C461BF015
:10109000B8FB214602462846BDE83840FFF7D1BFDD
:1010A00010B51446FFF7B8FE00B1047010BD037B05
:1010B00013F0010206D14368994201D9426070479A
:1010C000591A4160704770B5037B1546DA0704462C
:1010D00011D4426891420ED26B18934201D3416001
:1010E00070BD8668521A7018521BF1181BF03CFB39
:1010F00063685D1B656070BD2DE9F341037B0F469E
:10110000D9070446904621D438461BF07AFB0146A5
:101110002046FFF763FEC8B163682568A068CDF874
:101120000480ED1AC01829463A4643461FF026FAB5
:10113000011E08DBA94203D263685E18666005E001
:1011400020460131E5E720466900E2E7BDE8FC8181
:101150000EB403B503AA52F8041B0192FFF7CCFFAB
:10116000BDE80C4003B07047037803F08002D2B2B0
:101170009AB103F07F03402202E023EA02035208FF
:101180001A42FAD103E002F03F0242EA831310F858
:10119000012F02F0C0018029F5D018467047431C8A
:1011A00018460133027802F0C002802AF8D0704756
:1011B000002307E011F8012C02F0C002802A18BFBA
:1011C000013301398142F5D818467047411803466A
:1011D000002006E0127802F0C0020133802A18BF16
:1011E00001308B421A46F5D3704700007F2804D89F
:1011F000034B185CC0F3400070470020704700BFED
:1012000054E104087F2804D8034B185CC0F3C000E5
:1012100070470020704700BF54E104087F2804D8BD
:10122000034B185CC0F3800070470020704700BF7C
:1012300054E1040810B50446FFF7F0FF50B9A4F1DB
:101240006103052B06D9A4F1410005288CBF0020BD
:10125000012010BD012010BD7F2804D8034B185C6D
:10126000C0F3001070470020704700BF54E104082D
:101270007F2804D8034B185CC0F34010704700204F
:10128000704700BF54E1040810B50446FFF7E4FFBF
:1012900000B12034204610BD10B50446FFF7E8FF2A
:1012A00000B1203C204610BDF0B51C0994421DD26F
:1012B00001EB4401121B02391446064603F00F03EA
:1012C0000BE031F8025F012C84BF4F8845EA0745E7
:1012D00025FA03F526F8025B013C002CF1D100EB66
:1012E000420030F8023C13B9013A00E000221046F7
:1012F000F0BD2DE9F041069F0024D21B3E46254655
:1013000009E031F8048033F804C0C444654405534F
:10131000013E2D0C0234002EF3D17F00C419334658
:10132000CF1906E037F813104D1924F813502D0C7F
:10133000013393424FEA4306F4D1A2191DB10121B2
:1013400024F813100232101A4010BDE8F081F0B5F5
:10135000059F0024D21B3E4625460AE031F804C012
:10136000654433F804C0CCEB05050553013E2D144C
:101370000234002EF2D17F00C4193346CF1906E0A3
:1013800037F813106D1824F813502D1401339342BD
:101390004FEA4306F4D1A319023B83421A4603D213
:1013A0000232101A4010F0BD1188023B0029F4D01F
:1013B000F6E738B505460C20FEF75CFE2A78037880
:1013C00062F300036FF34103037004462868236847
:1013D000C0F39D0060F39F0323606B686360AB689C
:1013E0000BB9A3600AE04000FEF744FEA0602A6843
:1013F000A968C2F39D0252001BF08AF9204638BD4D
:1014000010B5044638B18068FEF772FE2046BDE88C
:101410001040FEF76DBE10BD38B504468068012946
:101420008CBF0D46022518B12368B5EB930F0CD97C
:10143000237803F00203DBB23BB96900FEF74AFEF2
:101440002368A06065F39F03236038BD994210B5FF
:1014500011D313D84B00C018D21808E030F8024D51
:1014600032F8023DE31A002B05DB07D101390029D0
:10147000F4D1084610BD4FF0FF3010BD012010BD63
:1014800038B504460D460321FFF7C6FF002D23782B
:1014900004DA43F001032370694203E06FF30003B1
:1014A000237029460023636006E06368A26822F87F
:1014B000131001336360090C0029F6D138BD03789D
:1014C00003F0FE036FF34103037003686FF39F03A0
:1014D0000360002343608360704738B1037803F0F2
:1014E0000203DBB213B98068FEF702BE704738B55D
:1014F00005460C464968FFF78FFF22782B78A868CD
:1015000062F300032B706368A1686B60626852002D
:10151000BDE838401BF0FCB8034609B95960704774
:10152000FFF7AEBF30B50578816005F0FE0545F0E8
:10153000020505700568044662F39F0519460022FE
:1015400005604260BDE83040FFF7E6BF38B50446AD
:101550000D46FFF7B4FF20462946BDE83840FFF7A7
:10156000DBBF70B50521064614461D46FFF754FF44
:101570009DF81020337852B1002C75F1000106DA85
:1015800043F001033370624265EB450304E06FF3FF
:101590000003337022462B46002171600BE0716816
:1015A000B06820F8112001317160110C41EA03414B
:1015B000180C0A46034652EA0301F0D170BD2DE92A
:1015C000F04110EE106A0378F20F62F3000303702B
:1015D000C6F30F4313F4FF43054600D10AE0B3F509
:1015E000FF4F00D105E0C6F3C753A3F17F07002FDB
:1015F00003DA00236B60BDE8F08104D10121BDE86E
:10160000F041FFF73DBF1022A3F16F08C6F31606A5
:10161000162F98FBF2F846F4000605DCC3F196039A
:101620000027DE403C4606E00937A3F1960407F0A8
:101630000F0794FBF2F428464146FFF7EDFEC5F88C
:10164000048024B1A868002162001BF0A4F847B10F
:10165000AB6806FA07F2C7F1100723F81420FE4022
:101660000134630004E0AA680134D652360C023318
:101670004445F8D1BDE8F0812DE9F047044601EB7F
:1016800002080E46C2F35B011D460131089FFFF7B9
:10169000C3FE237815B143F0010301E065F30003B5
:1016A00023700023636035461FFA87FC30E0027820
:1016B000A2F130030135092B0FD9A2F14103192BF7
:1016C00002D8A2F1370308E0A2F16103192B02D975
:1016D000801BBDE8F087A2F15703BB42F8D2A26895
:1016E00060689BB29146014607E0B9F800A00CFB88
:1016F0000A3329F8023B01391B0C0029F5D102EB12
:10170000400113B122F8103002318A1A521062607F
:1017100045452846CBD3DBE74068D0F1010038BF10
:101720000020704738B50B464168024609B9586831
:1017300078B11878147800F0010004F00105401B1E
:1017400007D190689A685B68FFF780FEE30748BF9F
:10175000404238BD884210B5044601D0FFF7C7FEAD
:1017600023786FF30003237010BD884210B5044640
:1017700001D0FFF7BCFE2378C3F30002C2F10102DF
:1017800062F30003237010BD88421FB5044601D0E8
:10179000FFF7ADFE626842B920460121FFF73CFE2B
:1017A000A26801231380636021E02378D9070ED556
:1017B0006FF30003A06823700123ADF80E3000938F
:1017C00001460DF10E03FFF7C2FD606013E0511CEE
:1017D0002046FFF721FEA06862680123ADF80E30B5
:1017E000009301460DF10E03FFF783FD606023783F
:1017F00043F0010323701FBDF0B54B6885B004466C
:101800000D4616460BB1002A04D120462946FFF7A3
:101810006EFE48E003DA524200F047F843E0194612
:10182000FFF7FAFDA9686A68A0683346FFF73CFD38
:1018300060602978237861F300030246D80723709B
:1018400031D500233111ADF80E30686808E0AF687B
:1018500037F813701FB10123ADF80E3004E00133E7
:10186000834201D08B42F2D181420CD2AB6806F0A8
:101870000F0633F81110012303FA06F6013E314238
:1018800018BFADF80E30BDF80E3063B10123A0686B
:1018900012B90380636006E0009301460DF10E0368
:1018A000FFF727FD606005B0F0BD4B682DE9F047FC
:1018B00004460D4616460BB1002A05D1204629469E
:1018C000BDE8F047FFF713BE04DA5242BDE8F04727
:1018D000FFF792BF02F10F0703EB2711FFF79CFD03
:1018E0006A68AB68A16816F00F064FEA171E08BFBA
:1018F00010260EEB0207501E07F1FF3803EB4000E5
:10190000002301EB480C99461146C6F110060BE086
:1019100030F803A04AEA090929FA06FA2CF803A0CC
:101920004FEA09490139023B0029F1D16FF0010367
:101930005A430CEB020029FA06F62CF8026003FB6E
:101940000E060EF100420236013A304652001AF0FD
:1019500022FF36F8183003B9013F67602A782378F0
:1019600062F300032370BDE8F08773B515460646A1
:101970000C468868926849686B68FFF767FD002825
:1019800002DA23462C461D462A7823785340DB078B
:101990000DD4616830460131FFF73EFD6B68B068D9
:1019A0000093A1686268AB68FFF7A3FC0BE03046C8
:1019B0006168FFF731FD6B68B0680093A1686268E9
:1019C000AB68FFF7C4FC70602278337862F30003E1
:1019D00033707CBDF7B5164605460C46886892689C
:1019E00049687368FFF732FD002801DB002703E038
:1019F0002346012734461E46327823785340DA07BF
:101A00000DD5616828460131FFF706FD7368A868A7
:101A10000093A1686268B368FFF76BFC0BE028468F
:101A20006168FFF7F9FC7368A8680093A1686268B1
:101A3000B368FFF78CFC686022782B781FB1C2F383
:101A40000002C2F1010262F300032B70FEBDF8B583
:101A500014460A7823780E4683EA0201C907054630
:101A60002DD4D00778D4726863689A4202D2334684
:101A700026461C4628466168FFF7CEFC6068AA68C7
:101A8000B668A7680146002307E037F803C0F45A98
:101A90000CEA0404D452013902330029F5D102EBD7
:101AA0004003023B9342194604D202318A1A521073
:101AB0006A604DE00888023B0028F3D0F5E7D907BB
:101AC00002D4334626461C46716828460131FFF78A
:101AD000A3FC7268AF68B368A6686468023E141B12
:101AE000394601200DE036F802CF6FEA0C0C10FAEF
:101AF0008CF033F802CC0CEA000C21F802CB000C7D
:101B0000013A9C4612B10233A242ECD1002309E013
:101B10003CF8134000F57F40FF30044021F81340AB
:101B2000000C013393424FEA4304F1D10A1918B172
:101B3000012021F8130007E0931EBB421A4603D38D
:101B40001188023B0029F8D00232D71B7F106F604A
:101B50002B786FF300032B70F8BD2DE9F843154681
:101B600006460C468868926849686B68FFF76EFC09
:101B7000002802DA23462C461D462A78237861681D
:101B80005A4012F00108304629D1FFF745FC686839
:101B90006368D5F808C0B168A7681D1A42460346B5
:101BA00009E03CF8029037F8028049EA080821F879
:101BB0000280013B0232002BF3D140003F1808188D
:101BC00004E037F8132020F813200133AB424FEA2A
:101BD0004302F6D18018411A4910716001E0FFF705
:101BE0001BFC2278337862F300033370BDE8F8837E
:101BF0002DE9F041154606460C468868926849680A
:101C00006B68FFF723FC002802DA23462C461D46AA
:101C10002A78237861685A4012F00108304627D1AB
:101C2000FFF7FAFB6868A7686468B168D5F808C070
:101C3000241A0346424607E03CF80280BD5A88EA6F
:101C400005058D52013B0232002BF5D140003F18B3
:101C5000081804E037F8132020F813200133A342BA
:101C60004FEA4302F6D18018411A4910716001E031
:101C7000FFF7D2FB33786FF300033370BDE8F081D8
:101C80002DE9F04F4B6889B004460E4615460BB15E
:101C9000536813B90023636077E0814205D1FFF7F1
:101CA00088FBB542074608D008E00027824207D1EA
:101CB000FFF77FFB0546074602E005463E46FFE785
:101CC000736869682046C918FFF7A6FB2268A068F8
:101CD000C2F39D02002152001AF05DFDA268B368B4
:101CE00001927268A86805934FEA420C0CF1020851
:101CF00004926968019BCDF81C80023000222FE01D
:101D000033F802A0CA44DDF81490CDF80CA039F8DD
:101D1000029030F802ACDDF80CB00AFB09BB23F8E6
:101D200002B04FEA1B4908F1FF38023203E00022FB
:101D3000DDF810809146B8F1000FE1D103EB0C0AF9
:101D4000B9F1000F04D0079A23F80C9002EB030AB4
:101D5000019AC2EB0A0A4FEA6A02013902330230E1
:101D60000029E4D162602A783378534013F0010FE0
:101D7000237838460CBF61F3000343F0010323705E
:101D800009B0BDE8F04FFFF73BBB09B0BDE8F08FED
:101D90004B6870B50646144613B11378DB0702D5BD
:101DA0000023736070BD536823B90121BDE8704002
:101DB000FFF766BB0846FFF7FCFA05462046FFF72B
:101DC000F8FA012104463046FFF75AFB1DE0A368EC
:101DD0001B88D80704D5304631462A46FFF750FF06
:101DE000A068626801460123FFF75EFA606038B9B7
:101DF0002846FFF705FB2046BDE87040FFF700BB13
:101E0000284629462A46FFF73BFF6368002BDED1B0
:101E1000EEE72DE9F04F91B0044606935B680D465E
:101E2000164613B943604B6053E151680131FFF727
:101E3000F3FA7268A0680132520000214FF00008E6
:101E40001AF0A9FCC4F80480716828460131FFF734
:101E5000E3FA28463146FFF74AFB0698A268416834
:101E6000D0F80890D5F808B06F68049107925846EA
:101E700039464A46049BFFF7E9FA002805D1686015
:101E8000079D01232B80636019E102DAC4F8048006
:101E900015E10499481E09EB40020B92434639F8BC
:101EA000102003E05200013392B29BB21104F9D525
:101EB0000499C3F1100A4900089109EB01084A4648
:101EC0000021CDF80CA00CE0BCF800C00CFA03FA1D
:101ED0004AEA0101DDF80CA022F8021B4CFA0AF1D3
:101EE00089B242459446EFD30BEB470C791C0BEBC0
:101EF0004102CDF828C04FF0000C2BF817C0039218
:101F000069605A466746C3F1100A0AE0BCF800C08F
:101F10000CFA03F848EA070722F8027B4CFA0AF7A2
:101F2000BFB2DDF80C8042459446EFD304350395EB
:101F3000049DDDF820A039F810000A9A0C90491B86
:101F4000079D6160013905EB4101A9F10208CAF161
:101F5000020A0991CDF82880CDF83CA06DE032F856
:101F6000021CB2F800A0DDF830C0089841EA0A4A25
:101F7000BAFBFCFA111ADDF828C01BE03CF8027F1E
:101F800031F8025B07FB0AF7AF4203D2C7EB050843
:101F900080450BD8C019451B684221F8020CA8B235
:101FA000003018BF012000EB154004E0C0EB080032
:101FB00021F8020C00209142E0D332F80219884245
:101FC00009D3411A4842508088B2003018BF01201E
:101FD00000EB11401FE0081A508000201BE037F88A
:101FE000028FA8440E9DCDF80880DDF808C0B5F832
:101FF00000800CEB080521F8025B2D0CDDF8348025
:102000000E914145EBD351886D185580A0EB1540DA
:102010000AF1FF3A04E0DDF83CC09444CDF804C076
:1020200018B101990A9F0025E8E70998059D20F855
:1020300002A909900398691E01600399049D09682B
:102040000D92A94205918AD80B9A0021C3F110057F
:1020500008E0008840FA03F7394322F8021900FA31
:1020600005F189B24A451046F3D20598421E0BEBA2
:1020700042020021C3F1100508E0008840FA03F78E
:10208000394322F8021900FA05F189B25A4510467F
:10209000F3D2221D00E01360136843B1013B079D9A
:1020A00035F813100029F6D001E003980360039976
:1020B0000B6823B1013B3BF81320002AF5D0069DA5
:1020C00033782A785340DA0703D5237843F00103A5
:1020D000237011B0BDE8F08F8168426810B501EB44
:1020E0004202002304E034F8024C023A44EA03437B
:1020F0008A421446F7D80278D00748BF5B42184698
:1021000010BD70B542688468002304EB420247F6B4
:10211000FF7606E0B3420ED835F8025C023A45EA93
:102120000343A2421546F5D80278D20748BF5B4266
:102130000B60012070BD002070BD00008268436804
:102140009FED0D0A02EB4303DFED0C7A0AE031F854
:10215000021C07EE101AB8EEC77A00EE277A023B8F
:10216000B0EE470A93421946F1D80378D90748BF21
:10217000B1EE400A704700BF000000000000804739
:1021800038B58C1E1E2C14D845680B48415C2D01B7
:10219000B5FBF1F523B16C1C0323B4FBF3F400E0B1
:1021A0001C4610460AB11AF02CFB03352C192018D6
:1021B00038BD002038BD00BFD4E104082DE9F84F38
:1021C0000B9D9DF828A081460F4616469B461DB1E3
:1021D000012901D9202903D900202870BDE8F88FF2
:1021E00044688CB94AB1561E2C4601E004F8013B04
:1021F00016F8013F002BF9D100E02C463023237064
:10220000002304F8013F6BE064002046FDF732FF35
:10221000D9F80810804622461AF07AFAABF13A0B48
:102220002A46294608EB040300E021469C1E4FF095
:10223000000E08E0008840EA0E4EBEFBF7F024F8DE
:10224000020907FB10EE44452046F3D20EF1300E92
:10225000BEF1390F0C4688BFDE4404F801EBC646D8
:1022600003E000880EF1020E20B99E457046F8D3B7
:10227000012000E00020BAF1000F08D0C2EB040EEC
:10228000BEF1030F03D18C1C81F801A02246002867
:10229000CBD04046FDF72CFF56B130461AF0B1FACC
:1022A000301803E010F8013D04F8013BB042F9D8C2
:1022B00099F80030D80702D52D2304F8013B2A46AF
:1022C000631E05E012F8011C587802F8010C5970E1
:1022D00019461046013B01328842F3D30023237094
:1022E000601BBDE8F88F0369591C10B504462DD05A
:1022F0000A2B04D1C3690133C361012306E0092B12
:10230000036A02D1073323F00703013323626369B1
:1023100060682361A3696361A36898472369A0612A
:102320000D2B09D10A23236163690A2B04D1606153
:10233000A36860689847A061A369013306D1636907
:102340005A1C03D00A2B01D00A23A36110BD000040
:102350002DE9F74F00F14406044630468846002731
:10236000FEF7C6FD2FE00A2804D12046FFF7BBFF89
:10237000012728E0FEF73AFF00B121E02369232B73
:1023800008D12046FFF7AFFF2369581C1BD00A2B4A
:10239000F7D118E05C2B07D0E369256AA363E563F6
:1023A000B8F1000F13D118E02046FFF79CFF236916
:1023B0000A2B05D0E369A363236AE3630423E4E201
:1023C0002046FFF790FF2069411CCCD1E4E7012BA8
:1023D00003D1012D01D0062350E2636A002B02DAFB
:1023E0000722226428E004D006222264013B6362B3
:1023F000A9E2002F30D0A36A73BB6362236B606BCA
:10240000052222645A1E013D30F81220954200F048
:102410009A8217D9E16A8B4207D308314900FDF748
:1024200059FEE36A60630833E362236B626B22F850
:10243000135001332363636A0133D8E72363636A6C
:10244000013B6362236B013B30F813209542F5D3C7
:1024500000F07982022311E22069421C16D1236B1D
:10246000626B013B32F81330002B00F0078205232A
:102470002364002302E02363636A013B6362236BEE
:10248000013B32F813100029F5D15CE2272806D071
:10249000B0F1220CDCF1000353EB0C0300E001234C
:1024A000002B3AD1722808D0752806D0B0F1620E00
:1024B000DEF1000353EB0E0300E001234BB163692F
:1024C000272B04D0B3F122014B424B4100E0012302
:1024D0001BBB722805D16369B3F1620253425341B9
:1024E00000E000235BB9622806D16369B3F1720C86
:1024F000DCF1000353EB0C03002B00F00C81A3690B
:10250000272B06D0B3F1220EDEF1000353EB0E03AE
:1025100000E00123002B00F0FE80752803D1204647
:10252000FFF7E1FE3DE262280BD12046FFF7DBFE1C
:102530002369722B40F02F822046FFF7D4FE01273B
:102540002AE2722840F02D822046FFF7CCFE236954
:10255000622BF1D0012725E223692046222B0CBFF4
:102560004FF022084FF02708FFF7BDFE23694345CF
:1025700005D16369B3EB08014B424B4100E00023F6
:1025800043B12046FFF7AFFE2046FFF7ACFE4FF009
:10259000030901E04FF001090025A7E0414505D1FD
:1025A000304641460135FEF701FD9CE05C2940F0D4
:1025B000958020460191FFF796FE256901990FB19C
:1025C000304673E0622D24D010D84E2D75D005D83A
:1025D000222D72D0272D70D00A2D18E05C2D6CD0E2
:1025E000612D00F0E481552D48D11CE0742D00F0E0
:1025F000E08106D86E2D0ED0722D12D0662D3DD101
:102600000DE0762D09D00ED3782D1BD06A1C35D164
:1026100068E0082554E00A2552E00B2550E00C251F
:102620004EE00D254CE0BAF1000F04D030465C219D
:10263000FEF7BCFC44E0752D14BF4FF0080B4FF0C3
:10264000040B01E04FF0020B00252046FFF74BFE84
:10265000226910460192FEF7EDFD019A60B1A2F1E8
:1026600030002D01092884BF20F020000738BBF17D
:10267000010B0544E9D11DE005461BE0A5F1300B37
:10268000BBF1070F08D90FE02046FFF72CFE2269A7
:10269000303A02EBCB0B00E003256269303A072A9F
:1026A00007D8013DF0D104E030465C21FEF77EFC06
:1026B00000E05D466B1C00D114E09B4B9D4211D89D
:1026C000BAF1000F05D129463046FEF76FFC55469A
:1026D00009E0FF2D06D83046E9B201E03046C9B224
:1026E000FEF75CFC00252046FFF7FDFD2169481C34
:1026F00008D0B9F1010F01D10A2903D04D45FFF4EB
:102700004DAF03E04D4501D20323236430462946F3
:10271000FEF7CDFC17E1FEF775FD28B92369B3F18B
:102720005F025342534100E001230BB308232364AB
:1027300030462169FEF73AFC2046FFF7D4FD2069B8
:10274000431C00F00081FEF75DFD38B92369B3F149
:102750005F0CDCF1000353EB0C0300E001231BB919
:102760002069FEF75BFD00E00120C007E0D4EAE04D
:102770002069FEF753FD18B123692E2B0CD108E018
:1027800023692E2B57D16069FEF748FD0028F3D14D
:1027900051E00A23236408E00922302B226404D18B
:1027A0006069FEF72FFD054600E0002530462169EF
:1027B000FEF7FCFB2046FFF796FD0A2737E0B5B988
:1027C000652804D0B0F145014A424A4100E00122A7
:1027D0006AB1652130462764FEF7E8FB2046FFF723
:1027E00082FD21692B291CD02D2920D119E0FEF76B
:1027F00009FD18B121692E2909D10FE02069FEF7E2
:102800000DFD0028F6D123692E2BF3D09BE06A2919
:1028100004D0B1F14A025342534100E0012303B115
:1028200027643046FEF7C2FB2046FFF75CFD2069B7
:10283000431CC4D187E021692E292FD13046FEF7F1
:10284000B5FB2046FFF74FFD23692E2B05D16369A9
:10285000B3F12E004342434100E0002383B13046F0
:102860002E21FEF7A3FB2E213046FEF79FFB2046CC
:10287000FFF739FD2046FFF736FD0D23236462E0A4
:102880004A23FBE7652F05D0632F00D102E0452FD7
:1028900001D1013E01350136013501E0234D00260D
:1028A0002F780FB1B942EDD12046FFF71CFD0FB9CB
:1028B0000123E3E7013537460BE06A7823690137E6
:1028C000934205D120460135FFF70DFD3E4603E05A
:1028D00002352B78652BF0D02B78452B0AD16A78FE
:1028E0002369934204D12046FFF7FDFC3E460EE0EB
:1028F00001230EE0632B0AD16A78236901379342E2
:1029000005D12046FFF7EFFC02353E46E1E7084BD4
:102910009B5D2364236C422B03D0442B01D0462BB8
:1029200008D1A36A01330DE0FFFF1000A8E20408FC
:10293000F5E10408432B03D0452B01D0472B02D1EE
:10294000A36A013BA362236C082B3AD1E56CA66C09
:102950001D4F002357F82310002200E00132B2423D
:1029600001EB020027D011F802C0A85C8445F5D025
:10297000002262B1212B07D1144BD3F87031002B08
:1029800014BF0E23102300E00E33236419E001333B
:10299000222BDFD115E000270C2323644FF0010A1E
:1029A000DAE500270B2323644FF0000AD4E507255E
:1029B00086E6092584E60278D2F1010238BF0022BA
:1029C000D7E7BDE8FE8F00BF20E204089C1B002073
:1029D00010B5044678B1C3680BB14068984704F15C
:1029E0004400FEF760FA606BFDF782FB2046BDE80D
:1029F0001040FDF77DBB10BD2DE9F041804654200D
:102A00000E4617461D46FDF742FB044620B9002D31
:102A10004CD03046A84749E001230022C5600A2572
:102A2000C36103620363C0F8008042628262466051
:102A30008760C5621420FDF72AFB04F14408606337
:102A400020214046FEF706FA636B23B92046FFF7C4
:102A5000BFFF00242AE04046FEF751FA0028F5D1D6
:102A6000636B18803046B84720613046B8476061D4
:102A70003046B8472269A061531C00D104E0636965
:102A8000591C06D10D2A01D125610BE00A2A09D073
:102A900003E0013006D10D2B01D1656102E00A2B64
:102AA00018BFA56120460121FFF752FC2046BDE872
:102AB000F0810021FFF74CBC8268C1688A4203465E
:102AC00003D212F8010B9A6070474FF0FF30704745
:102AD000036810B5044613B14068FDF709FB2046B2
:102AE000BDE81040FDF704BB2DE9F041064610207B
:102AF0000D4617461C46FDF7CAFA014658B180E854
:102B000030008560054A064BED19C5603046BDE8CA
:102B1000F041FFF771BFBDE8F08100BFB92A02089C
:102B2000D12A0208037833B943698269013B4361C2
:102B300052F8230070470020704738B503780446E8
:102B40000D46BBB9036942699A420DD303F11001E6
:102B500080698900FDF7CAFA10B90123237038BDD6
:102B60002369A061103323616369A26942F823508D
:102B70000133636138BD2DE9F0410646981C8000A1
:102B80000F4690461D46FDF782FA044618B9012308
:102B90003370BDE8F081076098F8003043EA052300
:102BA000436000EB8508002705E0FFF7BBFF08EB5B
:102BB0000703013D9860043F3046002DF5D12146C2
:102BC000BDE8F041FFF7B9BF2DE9F8439946037816
:102BD00004468846174613BB4068A36883420ED359
:102BE00000F11001C900E068FDF780FA18B901236F
:102BF0002370BDE8F8836368E06010336360A06809
:102C0000E568431CA36055F8304068F3170445F8A5
:102C1000304005EBC0063B78C6F80490F370BDE881
:102C2000F8830000C36909050A0D996B024B53F83C
:102C300022200023FFF7C8BF34E70408012803D18E
:102C4000480040F00100704740EA011070472DE94C
:102C5000F347C469216C0829054607D1A16CE06CD3
:102C6000FDF7EEFF000140F0020166E009290BD1FB
:102C700000222346E06CA16C06F0E6FFC30706467F
:102C80000CD540F0010158E00A2915D10094E06C00
:102C9000A16C0122002307F067F806460C20A46B04
:102CA000FDF7F5F910B901232B701CE040F2AD13CC
:102CB00004604360866016E0A1F10B03012B39D854
:102CC000A16CE06C0A2902D8FDF7BAFF01E0FDF71C
:102CD00081FF0646206C46B10B2814BF0A2006204F
:102CE0003146FFF7ABFF014627E00B2814BF4FF03A
:102CF000AC0A4FF0AB0A1020D4F83890D4F84C80CE
:102D0000A76CFDF7C4F9044618B901232B703146AE
:102D100013E0C0F800904AF4007060603846FDF798
:102D2000A9F9414606463A4619F0F2FCA660E7606A
:102D3000214602E0090141F00E01284602B0BDE83B
:102D4000F047FFF7FABE000070B50446002825D012
:102D5000820723D14668F3B2A3F1AB02012A03D85C
:102D60008068FDF7C5F914E0AD2B12D00C4A52F87B
:102D7000233093F90130360A002BB8BF013E0025FD
:102D800005E004EB850301359868FFF7DDFFB542E8
:102D9000F7D12046BDE87040FDF7AAB970BD00BF6D
:102DA00034E70408036830B513B91360184630BD22
:102DB00013F0030F00D003E05C68E5B28D4202D04F
:102DC0001060012030BD08331360200A30BD0000C0
:102DD0002DE9F04F8DB00024402306464FF40070DB
:102DE000029105938DF810400694FDF750F92023C9
:102DF0000790802008930994FDF749F9079B0A90F2
:102E00000B9613B9AC48AD49D6E10028FAD0029F21
:102E1000B16B022F9CBFAA4BDB5DAA4F88BF012379
:102E200004AC57F8232020460023FFF7CDFE0025F1
:102E300006999DF810E0002900F09681BEF1000F80
:102E400040F0928107989F4F013900EBC103069132
:102E5000DA78D3F804B057F822A050F831709AF815
:102E6000019009F030002028C7F3170709F00F0878
:102E700033D0302800F00A811028D9D1BBF1000FDF
:102E800015D0A5B9D3E701F47040B0F5805F52D1F9
:102E9000306C0905B0EB115F06D12046FFF7D7FE75
:102EA0003046FFF706FEC2E70BF1010B01E008F127
:102EB000FF384FEA4B055544C3456988E3D301F415
:102EC0007043B3F5805F06D1336C0905B3EB115F36
:102ED000E3D00125ACE7204636E0002D37D03AF8A4
:102EE0001B1001F47041B1F5804F04D120467146AA
:102EF000FFF723FE2BE0BBF1010FEAD950E10AEB0B
:102F00004B05688800F47041B1F5805F13D1316CD6
:102F10000005B1EB105F0AD1082902D12046FFF766
:102F200096FE3046FFF7C5FD0BF1010B0FE0BBF13C
:102F3000000FCED034E12046394652460BF1010352
:102F4000FFF742FE69882046FFF76CFE6FE7C34536
:102F5000D5D34FF0000B5B465D4615E00AEB43010D
:102F6000498801F47040B0F5805F08D10905090D6A
:102F7000072908D9082905D10BF1010B02E00BF153
:102F8000010B00E0012501334345E7D3029A5AB310
:102F90009AF800301F2B27D19DF810305BB90999A2
:102FA0000A9B01F18041481E53F82000E0B9023924
:102FB00053F8213000E000239A0704D003F00F03F8
:102FC000022B04D110E07BB11B79AB2B0CD1204636
:102FD000FFF7A8FD2046FFF7A5FDFFF7B5FE204649
:102FE0003946394A0023BCE09AF800301F2B03D041
:102FF0002E2B08BF012500E001259AF8013003F0CF
:103000004001C9B2002918BF00251B0606D520467D
:103010000021FFF792FD0BF1010B01250A9B099995
:103020009DF8100003EB8101002398466FF0030E1A
:1030300008E030B90EFB031252F8042C0AB108F173
:10304000010801335B45F4D105B102E0B8F1000F8E
:1030500003D120463946524683E0B8F1010F0FD123
:1030600006E0FFF75FFD0135002818BF074600E0C6
:103070002F465D452046F4D13946FFF75EFDD6E682
:10308000204639465246FFF776FDD1E6F5B1B8F154
:10309000020F05D1BBF1010F3FF4CAAE002049E099
:1030A000BBF1010F3FF4C4AE1BF0010042D0B8F1F8
:1030B000030F3ED074E000BFAC09050856E60408D3
:1030C00088EA040834E7040852EB040809F0010315
:1030D0000393039A0BEA02030AEB4300B0F802C021
:1030E0000CF47040B0F5805F13D1306C4FEA0C5C8B
:1030F000B0EB1C5F09D113B92046FFF7A8FD30469D
:10310000FFF7D7FC0BF1010BE3E70BF1010B0125F6
:10311000BDE72046394652460BF10103CDF804C005
:10312000FFF752FDDDF804C020466146FFF77AFD47
:103130007EE6012019F0010F0BF1FF3508D0BAF837
:10314000041001F47041B1F5805F08BF4FEA5B05E0
:10315000012D02D100283FF46AAE2046394652467E
:103160002B46FFF708FD62E6BEF1000F7FF44AAE82
:10317000336CABB90A9B1D6874460798FCF7B8FF1F
:103180000A98FCF7B5FFE4B120463168B26B002322
:103190000AF0A4F93046FFF71BFC2046FCF74EFF6F
:1031A000336C062B02D10A480A4905E0022B07BFFF
:1031B0000748094909480A490AF052F90025044616
:1031C000DBE73046FFF704FC28460DB0BDE8F08F82
:1031D000100D05087EE6040890E60408E00E0508D8
:1031E000C4E604082DE9F041054630200E4690461D
:1031F0001F46FCF75CFF04460560C660C0F81080FF
:10320000072D1AD8DFE805F004070A0D101316077A
:103210004FF48F7310E0B3681B090DE040F21F13E9
:103220000AE04FF4907307E040F2211304E04FF4FA
:10323000917301E040F22313636106F0C3FE04239F
:10324000A061677723852020FCF714FFE062204609
:10325000BDE8F08110B50446C06AFCF749FF20467E
:10326000BDE81040FCF744BF30B50246458D002351
:1032700006E0D06A00EBC30044688C4203D00133FF
:10328000AB42F6D3002030BDF8B504460F461646D3
:10329000FFF7EAFF08B1002319E0238D628D9A42FF
:1032A00008D3991DE06AC900FCF714FF238DE06282
:1032B00006332385658DE26A6B1C02EBC5006385CE
:1032C000002302F835304370438047600123337098
